{
  "_format": "hh-sol-artifact-1",
  "contractName": "Crypto_Data_Live_Presale",
  "sourceName": "contracts/Crypto_Data_Live_Presale.sol",
  "abi": [
    {
      "inputs": [
        {
          "internalType": "address",
          "name": "_usdt",
          "type": "address"
        },
        {
          "internalType": "address",
          "name": "_usdc",
          "type": "address"
        },
        {
          "internalType": "address",
          "name": "_saleToken",
          "type": "address"
        }
      ],
      "stateMutability": "nonpayable",
      "type": "constructor"
    },
    {
      "inputs": [],
      "name": "invalidUSDTPrice",
      "type": "error"
    },
    {
      "inputs": [],
      "name": "minimumAndMaximumLimit",
      "type": "error"
    },
    {
      "inputs": [],
      "name": "pleaseSendTokenPrice",
      "type": "error"
    },
    {
      "inputs": [],
      "name": "roundSupplyLimitExceed",
      "type": "error"
    },
    {
      "anonymous": false,
      "inputs": [
        {
          "indexed": true,
          "internalType": "address",
          "name": "previousOwner",
          "type": "address"
        },
        {
          "indexed": true,
          "internalType": "address",
          "name": "newOwner",
          "type": "address"
        }
      ],
      "name": "OwnershipTransferred",
      "type": "event"
    },
    {
      "anonymous": false,
      "inputs": [
        {
          "indexed": false,
          "internalType": "address",
          "name": "_addr",
          "type": "address"
        },
        {
          "indexed": false,
          "internalType": "uint256",
          "name": "_amount",
          "type": "uint256"
        },
        {
          "indexed": false,
          "internalType": "string",
          "name": "_paymentType",
          "type": "string"
        }
      ],
      "name": "buyHistory",
      "type": "event"
    },
    {
      "inputs": [
        {
          "internalType": "uint256",
          "name": "_amount",
          "type": "uint256"
        }
      ],
      "name": "buyWithBNB",
      "outputs": [
        {
          "internalType": "bool",
          "name": "",
          "type": "bool"
        }
      ],
      "stateMutability": "payable",
      "type": "function"
    },
    {
      "inputs": [
        {
          "internalType": "uint256",
          "name": "_buyToken",
          "type": "uint256"
        },
        {
          "internalType": "bool",
          "name": "isUsdt",
          "type": "bool"
        }
      ],
      "name": "buyWithUSDT",
      "outputs": [
        {
          "internalType": "bool",
          "name": "",
          "type": "bool"
        }
      ],
      "stateMutability": "nonpayable",
      "type": "function"
    },
    {
      "inputs": [
        {
          "internalType": "uint256",
          "name": "_priceInUSDT",
          "type": "uint256"
        }
      ],
      "name": "changeSalePrice",
      "outputs": [],
      "stateMutability": "nonpayable",
      "type": "function"
    },
    {
      "inputs": [],
      "name": "getLatestUSDTPrice",
      "outputs": [
        {
          "internalType": "uint256",
          "name": "",
          "type": "uint256"
        }
      ],
      "stateMutability": "view",
      "type": "function"
    },
    {
      "inputs": [],
      "name": "isSale",
      "outputs": [
        {
          "internalType": "bool",
          "name": "",
          "type": "bool"
        }
      ],
      "stateMutability": "view",
      "type": "function"
    },
    {
      "inputs": [],
      "name": "owner",
      "outputs": [
        {
          "internalType": "address",
          "name": "",
          "type": "address"
        }
      ],
      "stateMutability": "view",
      "type": "function"
    },
    {
      "inputs": [],
      "name": "raisedAmount",
      "outputs": [
        {
          "internalType": "uint256",
          "name": "",
          "type": "uint256"
        }
      ],
      "stateMutability": "view",
      "type": "function"
    },
    {
      "inputs": [],
      "name": "renounceOwnership",
      "outputs": [],
      "stateMutability": "nonpayable",
      "type": "function"
    },
    {
      "inputs": [],
      "name": "salePrice",
      "outputs": [
        {
          "internalType": "uint256",
          "name": "",
          "type": "uint256"
        }
      ],
      "stateMutability": "view",
      "type": "function"
    },
    {
      "inputs": [
        {
          "internalType": "uint256",
          "name": "_amount",
          "type": "uint256"
        }
      ],
      "name": "sellTokenInETHPrice",
      "outputs": [
        {
          "internalType": "uint256",
          "name": "",
          "type": "uint256"
        }
      ],
      "stateMutability": "view",
      "type": "function"
    },
    {
      "inputs": [
        {
          "internalType": "uint256",
          "name": "_amount",
          "type": "uint256"
        }
      ],
      "name": "sellTokenInUDSTPrice",
      "outputs": [
        {
          "internalType": "uint256",
          "name": "",
          "type": "uint256"
        }
      ],
      "stateMutability": "view",
      "type": "function"
    },
    {
      "inputs": [
        {
          "internalType": "address",
          "name": "newOwner",
          "type": "address"
        }
      ],
      "name": "transferOwnership",
      "outputs": [],
      "stateMutability": "nonpayable",
      "type": "function"
    },
    {
      "inputs": [
        {
          "internalType": "uint256",
          "name": "_amount",
          "type": "uint256"
        }
      ],
      "name": "withdrawTokens",
      "outputs": [
        {
          "internalType": "bool",
          "name": "",
          "type": "bool"
        }
      ],
      "stateMutability": "nonpayable",
      "type": "function"
    }
  ],
  "bytecode": "0x60806040523480156200001157600080fd5b5060405162001cb838038062001cb8833981810160405281019062000037919062000267565b620000576200004b6200013160201b60201c565b6200013960201b60201c565b82600360006101000a81548173ffffffffffffffffffffffffffffffffffffffff021916908373ffffffffffffffffffffffffffffffffffffffff16021790555081600460006101000a81548173ffffffffffffffffffffffffffffffffffffffff021916908373ffffffffffffffffffffffffffffffffffffffff16021790555080600560006101000a81548173ffffffffffffffffffffffffffffffffffffffff021916908373ffffffffffffffffffffffffffffffffffffffff160217905550666a94d74f430000600181905550505050620002c3565b600033905090565b60008060009054906101000a900473ffffffffffffffffffffffffffffffffffffffff169050816000806101000a81548173ffffffffffffffffffffffffffffffffffffffff021916908373ffffffffffffffffffffffffffffffffffffffff1602179055508173ffffffffffffffffffffffffffffffffffffffff168173ffffffffffffffffffffffffffffffffffffffff167f8be0079c531659141344cd1fd0a4f28419497f9722a3daafe3b4186f6b6457e060405160405180910390a35050565b600080fd5b600073ffffffffffffffffffffffffffffffffffffffff82169050919050565b60006200022f8262000202565b9050919050565b620002418162000222565b81146200024d57600080fd5b50565b600081519050620002618162000236565b92915050565b600080600060608486031215620002835762000282620001fd565b5b6000620002938682870162000250565b9350506020620002a68682870162000250565b9250506040620002b98682870162000250565b9150509250925092565b6119e580620002d36000396000f3fe6080604052600436106100c25760003560e01c8063b56208961161007f578063cf28a78411610059578063cf28a7841461026f578063f2fde38b146102ac578063f51f96dd146102d5578063f8c1c18614610300576100c2565b8063b5620896146101eb578063c3333dfb14610214578063c59ee1dc14610244576100c2565b8063136021d9146100c7578063315a095d146101045780635827881814610141578063715018a61461017e5780638da5cb5b1461019557806398dd36bf146101c0575b600080fd5b3480156100d357600080fd5b506100ee60048036038101906100e99190611221565b61032b565b6040516100fb9190611270565b60405180910390f35b34801561011057600080fd5b5061012b6004803603810190610126919061128b565b610a48565b6040516101389190611270565b60405180910390f35b34801561014d57600080fd5b506101686004803603810190610163919061128b565b610b03565b60405161017591906112c7565b60405180910390f35b34801561018a57600080fd5b50610193610b32565b005b3480156101a157600080fd5b506101aa610b46565b6040516101b79190611323565b60405180910390f35b3480156101cc57600080fd5b506101d5610b6f565b6040516101e291906112c7565b60405180910390f35b3480156101f757600080fd5b50610212600480360381019061020d919061128b565b610c42565b005b61022e6004803603810190610229919061128b565b610c97565b60405161023b9190611270565b60405180910390f35b34801561025057600080fd5b50610259610f63565b60405161026691906112c7565b60405180910390f35b34801561027b57600080fd5b506102966004803603810190610291919061128b565b610f69565b6040516102a391906112c7565b60405180910390f35b3480156102b857600080fd5b506102d360048036038101906102ce919061136a565b610f8e565b005b3480156102e157600080fd5b506102ea611011565b6040516102f791906112c7565b60405180910390f35b34801561030c57600080fd5b50610315611017565b6040516103229190611270565b60405180910390f35b60008061033784610b03565b9050670de0b6b3a7640000811080610357575068a2a15d09519be0000081115b1561038e576040517f35debf6d00000000000000000000000000000000000000000000000000000000815260040160405180910390fd5b82156106ed5783600560009054906101000a900473ffffffffffffffffffffffffffffffffffffffff1673ffffffffffffffffffffffffffffffffffffffff166370a08231306040518263ffffffff1660e01b81526004016103f09190611323565b602060405180830381865afa15801561040d573d6000803e3d6000fd5b505050506040513d601f19601f8201168201806040525081019061043191906113ac565b1015610469576040517f9210988b00000000000000000000000000000000000000000000000000000000815260040160405180910390fd5b6000600360009054906101000a900473ffffffffffffffffffffffffffffffffffffffff1673ffffffffffffffffffffffffffffffffffffffff1663dd62ed3e33306040518363ffffffff1660e01b81526004016104c89291906113d9565b602060405180830381865afa1580156104e5573d6000803e3d6000fd5b505050506040513d601f19601f8201168201806040525081019061050991906113ac565b905080821015610545576040517f8bbdc31c00000000000000000000000000000000000000000000000000000000815260040160405180910390fd5b600360009054906101000a900473ffffffffffffffffffffffffffffffffffffffff1673ffffffffffffffffffffffffffffffffffffffff166323b872dd3361058c610b46565b856040518463ffffffff1660e01b81526004016105ab93929190611402565b6020604051808303816000875af11580156105ca573d6000803e3d6000fd5b505050506040513d601f19601f820116820180604052508101906105ee919061144e565b50600560009054906101000a900473ffffffffffffffffffffffffffffffffffffffff1673ffffffffffffffffffffffffffffffffffffffff1663a9059cbb33876040518363ffffffff1660e01b815260040161064c92919061147b565b6020604051808303816000875af115801561066b573d6000803e3d6000fd5b505050506040513d601f19601f8201168201806040525081019061068f919061144e565b5081600260008282546106a291906114d3565b925050819055507f0371644b355388a624a6177b002ed35bc804509fdde155c58472d42bd1ce3d0833866040516106da929190611564565b60405180910390a1600192505050610a42565b83600560009054906101000a900473ffffffffffffffffffffffffffffffffffffffff1673ffffffffffffffffffffffffffffffffffffffff166370a08231306040518263ffffffff1660e01b81526004016107499190611323565b602060405180830381865afa158015610766573d6000803e3d6000fd5b505050506040513d601f19601f8201168201806040525081019061078a91906113ac565b10156107c2576040517f9210988b00000000000000000000000000000000000000000000000000000000815260040160405180910390fd5b6000600460009054906101000a900473ffffffffffffffffffffffffffffffffffffffff1673ffffffffffffffffffffffffffffffffffffffff1663dd62ed3e33306040518363ffffffff1660e01b81526004016108219291906113d9565b602060405180830381865afa15801561083e573d6000803e3d6000fd5b505050506040513d601f19601f8201168201806040525081019061086291906113ac565b90508082101561089e576040517f8bbdc31c00000000000000000000000000000000000000000000000000000000815260040160405180910390fd5b600460009054906101000a900473ffffffffffffffffffffffffffffffffffffffff1673ffffffffffffffffffffffffffffffffffffffff166323b872dd336108e5610b46565b856040518463ffffffff1660e01b815260040161090493929190611402565b6020604051808303816000875af1158015610923573d6000803e3d6000fd5b505050506040513d601f19601f82011682018060405250810190610947919061144e565b50600560009054906101000a900473ffffffffffffffffffffffffffffffffffffffff1673ffffffffffffffffffffffffffffffffffffffff1663a9059cbb33876040518363ffffffff1660e01b81526004016109a592919061147b565b6020604051808303816000875af11580156109c4573d6000803e3d6000fd5b505050506040513d601f19601f820116820180604052508101906109e8919061144e565b5081600260008282546109fb91906114d3565b925050819055507f0371644b355388a624a6177b002ed35bc804509fdde155c58472d42bd1ce3d083386604051610a339291906115ec565b60405180910390a16001925050505b92915050565b6000610a5261102a565b600560009054906101000a900473ffffffffffffffffffffffffffffffffffffffff1673ffffffffffffffffffffffffffffffffffffffff1663a9059cbb610a98610b46565b846040518363ffffffff1660e01b8152600401610ab692919061147b565b6020604051808303816000875af1158015610ad5573d6000803e3d6000fd5b505050506040513d601f19601f82011682018060405250810190610af9919061144e565b5060019050919050565b600080670de0b6b3a764000083600154610b1d9190611628565b610b279190611699565b905080915050919050565b610b3a61102a565b610b4460006110a8565b565b60008060009054906101000a900473ffffffffffffffffffffffffffffffffffffffff16905090565b60008073d5c40f5144848bd4ef08a9605d860e727b991513905060008173ffffffffffffffffffffffffffffffffffffffff1663feaf968c6040518163ffffffff1660e01b815260040160a060405180830381865afa158015610bd6573d6000803e3d6000fd5b505050506040513d601f19601f82011682018060405250810190610bfa9190611742565b50505091505060008113610c3a576040517f6ef30c4500000000000000000000000000000000000000000000000000000000815260040160405180910390fd5b809250505090565b610c4a61102a565b60008111610c8d576040517f08c379a0000000000000000000000000000000000000000000000000000000008152600401610c8490611809565b60405180910390fd5b8060018190555050565b600081600560009054906101000a900473ffffffffffffffffffffffffffffffffffffffff1673ffffffffffffffffffffffffffffffffffffffff166370a08231306040518263ffffffff1660e01b8152600401610cf59190611323565b602060405180830381865afa158015610d12573d6000803e3d6000fd5b505050506040513d601f19601f82011682018060405250810190610d3691906113ac565b1015610d6e576040517f9210988b00000000000000000000000000000000000000000000000000000000815260040160405180910390fd5b6000610d7983610b03565b9050670de0b6b3a7640000811080610d99575068a2a15d09519be0000081115b15610dd0576040517f35debf6d00000000000000000000000000000000000000000000000000000000815260040160405180910390fd5b6000610ddb84610f69565b905080341015610e17576040517f8bbdc31c00000000000000000000000000000000000000000000000000000000815260040160405180910390fd5b610e1f610b46565b73ffffffffffffffffffffffffffffffffffffffff166108fc349081150290604051600060405180830381858888f19350505050158015610e64573d6000803e3d6000fd5b50600560009054906101000a900473ffffffffffffffffffffffffffffffffffffffff1673ffffffffffffffffffffffffffffffffffffffff1663a9059cbb33866040518363ffffffff1660e01b8152600401610ec292919061147b565b6020604051808303816000875af1158015610ee1573d6000803e3d6000fd5b505050506040513d601f19601f82011682018060405250810190610f05919061144e565b508160026000828254610f1891906114d3565b925050819055507f0371644b355388a624a6177b002ed35bc804509fdde155c58472d42bd1ce3d083385604051610f50929190611875565b60405180910390a1600192505050919050565b60025481565b600080610f7583610b03565b90506000610f828261116c565b90508092505050919050565b610f9661102a565b600073ffffffffffffffffffffffffffffffffffffffff168173ffffffffffffffffffffffffffffffffffffffff1603611005576040517f08c379a0000000000000000000000000000000000000000000000000000000008152600401610ffc90611923565b60405180910390fd5b61100e816110a8565b50565b60015481565b600060149054906101000a900460ff1681565b6110326111a6565b73ffffffffffffffffffffffffffffffffffffffff16611050610b46565b73ffffffffffffffffffffffffffffffffffffffff16146110a6576040517f08c379a000000000000000000000000000000000000000000000000000000000815260040161109d9061198f565b60405180910390fd5b565b60008060009054906101000a900473ffffffffffffffffffffffffffffffffffffffff169050816000806101000a81548173ffffffffffffffffffffffffffffffffffffffff021916908373ffffffffffffffffffffffffffffffffffffffff1602179055508173ffffffffffffffffffffffffffffffffffffffff168173ffffffffffffffffffffffffffffffffffffffff167f8be0079c531659141344cd1fd0a4f28419497f9722a3daafe3b4186f6b6457e060405160405180910390a35050565b600080670de0b6b3a7640000836111839190611699565b9050600081611190610b6f565b61119a9190611628565b90508092505050919050565b600033905090565b600080fd5b6000819050919050565b6111c6816111b3565b81146111d157600080fd5b50565b6000813590506111e3816111bd565b92915050565b60008115159050919050565b6111fe816111e9565b811461120957600080fd5b50565b60008135905061121b816111f5565b92915050565b60008060408385031215611238576112376111ae565b5b6000611246858286016111d4565b92505060206112578582860161120c565b9150509250929050565b61126a816111e9565b82525050565b60006020820190506112856000830184611261565b92915050565b6000602082840312156112a1576112a06111ae565b5b60006112af848285016111d4565b91505092915050565b6112c1816111b3565b82525050565b60006020820190506112dc60008301846112b8565b92915050565b600073ffffffffffffffffffffffffffffffffffffffff82169050919050565b600061130d826112e2565b9050919050565b61131d81611302565b82525050565b60006020820190506113386000830184611314565b92915050565b61134781611302565b811461135257600080fd5b50565b6000813590506113648161133e565b92915050565b6000602082840312156113805761137f6111ae565b5b600061138e84828501611355565b91505092915050565b6000815190506113a6816111bd565b92915050565b6000602082840312156113c2576113c16111ae565b5b60006113d084828501611397565b91505092915050565b60006040820190506113ee6000830185611314565b6113fb6020830184611314565b9392505050565b60006060820190506114176000830186611314565b6114246020830185611314565b61143160408301846112b8565b949350505050565b600081519050611448816111f5565b92915050565b600060208284031215611464576114636111ae565b5b600061147284828501611439565b91505092915050565b60006040820190506114906000830185611314565b61149d60208301846112b8565b9392505050565b7f4e487b7100000000000000000000000000000000000000000000000000000000600052601160045260246000fd5b60006114de826111b3565b91506114e9836111b3565b9250828201905080821115611501576115006114a4565b5b92915050565b600082825260208201905092915050565b7f5553445400000000000000000000000000000000000000000000000000000000600082015250565b600061154e600483611507565b915061155982611518565b602082019050919050565b60006060820190506115796000830185611314565b61158660208301846112b8565b818103604083015261159781611541565b90509392505050565b7f5553444300000000000000000000000000000000000000000000000000000000600082015250565b60006115d6600483611507565b91506115e1826115a0565b602082019050919050565b60006060820190506116016000830185611314565b61160e60208301846112b8565b818103604083015261161f816115c9565b90509392505050565b6000611633826111b3565b915061163e836111b3565b925082820261164c816111b3565b91508282048414831517611663576116626114a4565b5b5092915050565b7f4e487b7100000000000000000000000000000000000000000000000000000000600052601260045260246000fd5b60006116a4826111b3565b91506116af836111b3565b9250826116bf576116be61166a565b5b828204905092915050565b600069ffffffffffffffffffff82169050919050565b6116e9816116ca565b81146116f457600080fd5b50565b600081519050611706816116e0565b92915050565b6000819050919050565b61171f8161170c565b811461172a57600080fd5b50565b60008151905061173c81611716565b92915050565b600080600080600060a0868803121561175e5761175d6111ae565b5b600061176c888289016116f7565b955050602061177d8882890161172d565b945050604061178e88828901611397565b935050606061179f88828901611397565b92505060806117b0888289016116f7565b9150509295509295909350565b7f5072696365206d7573742062652067726561746572207468616e205a65726f00600082015250565b60006117f3601f83611507565b91506117fe826117bd565b602082019050919050565b60006020820190508181036000830152611822816117e6565b9050919050565b7f424e420000000000000000000000000000000000000000000000000000000000600082015250565b600061185f600383611507565b915061186a82611829565b602082019050919050565b600060608201905061188a6000830185611314565b61189760208301846112b8565b81810360408301526118a881611852565b90509392505050565b7f4f776e61626c653a206e6577206f776e657220697320746865207a65726f206160008201527f6464726573730000000000000000000000000000000000000000000000000000602082015250565b600061190d602683611507565b9150611918826118b1565b604082019050919050565b6000602082019050818103600083015261193c81611900565b9050919050565b7f4f776e61626c653a2063616c6c6572206973206e6f7420746865206f776e6572600082015250565b6000611979602083611507565b915061198482611943565b602082019050919050565b600060208201905081810360008301526119a88161196c565b905091905056fea26469706673582212207873c2d50e171591a901614293f993f5033f0a3f7985b394f62a0ac4419438bd64736f6c63430008140033",
  "linkReferences": {},
  "deployedLinkReferences": {}
}