{
  "_format": "hh-sol-artifact-1",
  "contractName": "CryptoDataLiveBridge",
  "sourceName": "contracts/WrapedBridgeBase.sol",
  "abi": [
    {
      "inputs": [
        {
          "internalType": "address",
          "name": "_usdt",
          "type": "address"
        },
        {
          "internalType": "address",
          "name": "_usdc",
          "type": "address"
        },
        {
          "internalType": "address",
          "name": "_token",
          "type": "address"
        },
        {
          "internalType": "address",
          "name": "_admin",
          "type": "address"
        }
      ],
      "stateMutability": "nonpayable",
      "type": "constructor"
    },
    {
      "inputs": [],
      "name": "invalidUSDTPrice",
      "type": "error"
    },
    {
      "inputs": [],
      "name": "minimumAndMaximumLimit",
      "type": "error"
    },
    {
      "inputs": [],
      "name": "pleaseSendTokenPrice",
      "type": "error"
    },
    {
      "anonymous": false,
      "inputs": [
        {
          "indexed": true,
          "internalType": "address",
          "name": "previousOwner",
          "type": "address"
        },
        {
          "indexed": true,
          "internalType": "address",
          "name": "newOwner",
          "type": "address"
        }
      ],
      "name": "OwnershipTransferred",
      "type": "event"
    },
    {
      "anonymous": false,
      "inputs": [
        {
          "indexed": false,
          "internalType": "address",
          "name": "from",
          "type": "address"
        },
        {
          "indexed": false,
          "internalType": "address",
          "name": "to",
          "type": "address"
        },
        {
          "indexed": false,
          "internalType": "uint256",
          "name": "amount",
          "type": "uint256"
        },
        {
          "indexed": false,
          "internalType": "uint256",
          "name": "date",
          "type": "uint256"
        },
        {
          "indexed": false,
          "internalType": "uint256",
          "name": "nonce",
          "type": "uint256"
        },
        {
          "indexed": false,
          "internalType": "uint256",
          "name": "chainId",
          "type": "uint256"
        }
      ],
      "name": "WrappedBurn",
      "type": "event"
    },
    {
      "anonymous": false,
      "inputs": [
        {
          "indexed": false,
          "internalType": "address",
          "name": "from",
          "type": "address"
        },
        {
          "indexed": false,
          "internalType": "address",
          "name": "to",
          "type": "address"
        },
        {
          "indexed": false,
          "internalType": "uint256",
          "name": "amount",
          "type": "uint256"
        },
        {
          "indexed": false,
          "internalType": "uint256",
          "name": "date",
          "type": "uint256"
        },
        {
          "indexed": false,
          "internalType": "uint256",
          "name": "nonce",
          "type": "uint256"
        },
        {
          "indexed": false,
          "internalType": "uint256",
          "name": "chainId",
          "type": "uint256"
        }
      ],
      "name": "WrappedMint",
      "type": "event"
    },
    {
      "anonymous": false,
      "inputs": [
        {
          "indexed": false,
          "internalType": "address",
          "name": "_addr",
          "type": "address"
        },
        {
          "indexed": false,
          "internalType": "uint256",
          "name": "_amount",
          "type": "uint256"
        },
        {
          "indexed": false,
          "internalType": "string",
          "name": "_paymentType",
          "type": "string"
        }
      ],
      "name": "buyHistory",
      "type": "event"
    },
    {
      "inputs": [],
      "name": "admin",
      "outputs": [
        {
          "internalType": "address",
          "name": "",
          "type": "address"
        }
      ],
      "stateMutability": "view",
      "type": "function"
    },
    {
      "inputs": [
        {
          "internalType": "address",
          "name": "_from",
          "type": "address"
        },
        {
          "internalType": "address",
          "name": "_to",
          "type": "address"
        },
        {
          "internalType": "uint256",
          "name": "_amount",
          "type": "uint256"
        },
        {
          "internalType": "uint256",
          "name": "_chainId",
          "type": "uint256"
        }
      ],
      "name": "burn",
      "outputs": [],
      "stateMutability": "nonpayable",
      "type": "function"
    },
    {
      "inputs": [
        {
          "internalType": "address",
          "name": "_to",
          "type": "address"
        },
        {
          "internalType": "uint256",
          "name": "_amount",
          "type": "uint256"
        }
      ],
      "name": "buyWithETH",
      "outputs": [
        {
          "internalType": "bool",
          "name": "",
          "type": "bool"
        }
      ],
      "stateMutability": "payable",
      "type": "function"
    },
    {
      "inputs": [
        {
          "internalType": "address",
          "name": "_to",
          "type": "address"
        },
        {
          "internalType": "uint256",
          "name": "_buyToken",
          "type": "uint256"
        },
        {
          "internalType": "bool",
          "name": "isUsdt",
          "type": "bool"
        }
      ],
      "name": "buyWithUSDT",
      "outputs": [
        {
          "internalType": "bool",
          "name": "",
          "type": "bool"
        }
      ],
      "stateMutability": "nonpayable",
      "type": "function"
    },
    {
      "inputs": [
        {
          "internalType": "address",
          "name": "_admin",
          "type": "address"
        }
      ],
      "name": "changeAdmin",
      "outputs": [],
      "stateMutability": "nonpayable",
      "type": "function"
    },
    {
      "inputs": [
        {
          "internalType": "uint256",
          "name": "_priceInUSDT",
          "type": "uint256"
        }
      ],
      "name": "changeSalePrice",
      "outputs": [],
      "stateMutability": "nonpayable",
      "type": "function"
    },
    {
      "inputs": [
        {
          "internalType": "address",
          "name": "_token",
          "type": "address"
        }
      ],
      "name": "changeSaleToken",
      "outputs": [],
      "stateMutability": "nonpayable",
      "type": "function"
    },
    {
      "inputs": [],
      "name": "getLatestUSDTPrice",
      "outputs": [
        {
          "internalType": "uint256",
          "name": "",
          "type": "uint256"
        }
      ],
      "stateMutability": "view",
      "type": "function"
    },
    {
      "inputs": [],
      "name": "getRaisedAmount",
      "outputs": [
        {
          "internalType": "uint256",
          "name": "",
          "type": "uint256"
        }
      ],
      "stateMutability": "view",
      "type": "function"
    },
    {
      "inputs": [],
      "name": "getSalePrice",
      "outputs": [
        {
          "internalType": "uint256",
          "name": "",
          "type": "uint256"
        }
      ],
      "stateMutability": "view",
      "type": "function"
    },
    {
      "inputs": [
        {
          "internalType": "address",
          "name": "_to",
          "type": "address"
        },
        {
          "internalType": "uint256",
          "name": "_amount",
          "type": "uint256"
        },
        {
          "internalType": "uint256",
          "name": "_nonce",
          "type": "uint256"
        },
        {
          "internalType": "uint256",
          "name": "_chainId",
          "type": "uint256"
        }
      ],
      "name": "mint",
      "outputs": [],
      "stateMutability": "nonpayable",
      "type": "function"
    },
    {
      "inputs": [],
      "name": "nonce",
      "outputs": [
        {
          "internalType": "uint256",
          "name": "",
          "type": "uint256"
        }
      ],
      "stateMutability": "view",
      "type": "function"
    },
    {
      "inputs": [],
      "name": "owner",
      "outputs": [
        {
          "internalType": "address",
          "name": "",
          "type": "address"
        }
      ],
      "stateMutability": "view",
      "type": "function"
    },
    {
      "inputs": [
        {
          "internalType": "uint256",
          "name": "",
          "type": "uint256"
        },
        {
          "internalType": "uint256",
          "name": "",
          "type": "uint256"
        }
      ],
      "name": "processedNonces",
      "outputs": [
        {
          "internalType": "bool",
          "name": "",
          "type": "bool"
        }
      ],
      "stateMutability": "view",
      "type": "function"
    },
    {
      "inputs": [],
      "name": "raisedAmount",
      "outputs": [
        {
          "internalType": "uint256",
          "name": "",
          "type": "uint256"
        }
      ],
      "stateMutability": "view",
      "type": "function"
    },
    {
      "inputs": [],
      "name": "renounceOwnership",
      "outputs": [],
      "stateMutability": "nonpayable",
      "type": "function"
    },
    {
      "inputs": [],
      "name": "salePrice",
      "outputs": [
        {
          "internalType": "uint256",
          "name": "",
          "type": "uint256"
        }
      ],
      "stateMutability": "view",
      "type": "function"
    },
    {
      "inputs": [
        {
          "internalType": "uint256",
          "name": "_amount",
          "type": "uint256"
        },
        {
          "internalType": "uint256",
          "name": "_roundPrice",
          "type": "uint256"
        }
      ],
      "name": "sellTokenInETHPrice",
      "outputs": [
        {
          "internalType": "uint256",
          "name": "",
          "type": "uint256"
        }
      ],
      "stateMutability": "view",
      "type": "function"
    },
    {
      "inputs": [
        {
          "internalType": "uint256",
          "name": "_amount",
          "type": "uint256"
        },
        {
          "internalType": "uint256",
          "name": "_roundPrice",
          "type": "uint256"
        }
      ],
      "name": "sellTokenInUDSTPrice",
      "outputs": [
        {
          "internalType": "uint256",
          "name": "",
          "type": "uint256"
        }
      ],
      "stateMutability": "view",
      "type": "function"
    },
    {
      "inputs": [],
      "name": "token",
      "outputs": [
        {
          "internalType": "contract IToken",
          "name": "",
          "type": "address"
        }
      ],
      "stateMutability": "view",
      "type": "function"
    },
    {
      "inputs": [
        {
          "internalType": "address",
          "name": "newOwner",
          "type": "address"
        }
      ],
      "name": "transferOwnership",
      "outputs": [],
      "stateMutability": "nonpayable",
      "type": "function"
    },
    {
      "inputs": [
        {
          "internalType": "address",
          "name": "_newToken",
          "type": "address"
        }
      ],
      "name": "updateToken",
      "outputs": [],
      "stateMutability": "nonpayable",
      "type": "function"
    }
  ],
  "bytecode": "0x608060405264e8d4a510006008553480156200001a57600080fd5b50604051620013e3380380620013e38339810160408190526200003d916200010e565b6200004833620000a1565b600180546001600160a01b03199081166001600160a01b0393841617909155600280548216938316939093179092556006805483169482169490941790935560078054909116919092161790556159d86004556200016b565b600080546001600160a01b038381166001600160a01b0319831681178455604051919092169283917f8be0079c531659141344cd1fd0a4f28419497f9722a3daafe3b4186f6b6457e09190a35050565b80516001600160a01b03811681146200010957600080fd5b919050565b600080600080608085870312156200012557600080fd5b6200013085620000f1565b93506200014060208601620000f1565b92506200015060408601620000f1565b91506200016060608601620000f1565b905092959194509250565b611268806200017b6000396000f3fe6080604052600436106101355760003560e01c8063a647e8ec116100ab578063d3838ba01161006f578063d3838ba014610300578063d7020d0a1461033b578063f2fde38b1461035b578063f51f96dd1461037b578063f851a44014610391578063fc0c546a146103b157600080fd5b8063a647e8ec14610274578063affed0e014610294578063b5620896146102aa578063ba0dc0cd146102ca578063c59ee1dc146102ea57600080fd5b80638da5cb5b116100fd5780638da5cb5b146101b55780638e75e482146101e75780638f283970146101fc57806395a516691461021c57806398dd36bf1461023f5780639d6e1cca1461025457600080fd5b80632fbc0bf11461013a5780634184bcce1461015e578063715018a61461017e5780637a09e028146101955780637ad3def214610195575b600080fd5b34801561014657600080fd5b506004545b6040519081526020015b60405180910390f35b34801561016a57600080fd5b5061014b610179366004610fb2565b6103d1565b34801561018a57600080fd5b5061019361041e565b005b3480156101a157600080fd5b506101936101b0366004610ff0565b610432565b3480156101c157600080fd5b506000546001600160a01b03165b6040516001600160a01b039091168152602001610155565b3480156101f357600080fd5b5060055461014b565b34801561020857600080fd5b50610193610217366004610ff0565b61045c565b61022f61022a36600461100b565b610486565b6040519015158152602001610155565b34801561024b57600080fd5b5061014b610611565b34801561026057600080fd5b5061022f61026f366004611043565b6106b6565b34801561028057600080fd5b5061019361028f366004611083565b610b21565b3480156102a057600080fd5b5061014b60035481565b3480156102b657600080fd5b506101936102c53660046110bc565b610cc6565b3480156102d657600080fd5b5061014b6102e5366004610fb2565b610d23565b3480156102f657600080fd5b5061014b60055481565b34801561030c57600080fd5b5061022f61031b366004610fb2565b600960209081526000928352604080842090915290825290205460ff1681565b34801561034757600080fd5b506101936103563660046110d5565b610dac565b34801561036757600080fd5b50610193610376366004610ff0565b610e8f565b34801561038757600080fd5b5061014b60045481565b34801561039d57600080fd5b506001546101cf906001600160a01b031681565b3480156103bd57600080fd5b506002546101cf906001600160a01b031681565b600080600854836103e2919061112d565b9050600064e8d4a51000670de0b6b3a76400006103ff878561112d565b6104099190611144565b6104139190611144565b925050505b92915050565b610426610f08565b6104306000610f62565b565b61043a610f08565b600280546001600160a01b0319166001600160a01b0392909216919091179055565b610464610f08565b600180546001600160a01b0319166001600160a01b0392909216919091179055565b600080610495836004546103d1565b9050620f42408110806104ab575063b2d05e0081115b156104c9576040516335debf6d60e01b815260040160405180910390fd5b60006104d784600454610d23565b9050803410156104fa576040516322ef70c760e21b815260040160405180910390fd5b600080546040516001600160a01b03909116913480156108fc02929091818181858888f19350505050158015610534573d6000803e3d6000fd5b506002546040516340c10f1960e01b81526001600160a01b03878116600483015260248201879052909116906340c10f1990604401600060405180830381600087803b15801561058357600080fd5b505af1158015610597573d6000803e3d6000fd5b5050505081600560008282546105ad9190611166565b9091555050604080513381526020810186905260608183018190526003908201526208aa8960eb1b608082015290517f0371644b355388a624a6177b002ed35bc804509fdde155c58472d42bd1ce3d089181900360a00190a1506001949350505050565b60008073ee9f2375b4bdf6387aa8265dd4fb8f16512a1d4690506000816001600160a01b031663feaf968c6040518163ffffffff1660e01b815260040160a060405180830381865afa15801561066b573d6000803e3d6000fd5b505050506040513d601f19601f8201168201806040525081019061068f9190611193565b5050509150506000811361041857604051636ef30c4560e01b815260040160405180910390fd5b6000806106c5846004546103d1565b9050620f42408110806106db575063b2d05e0081115b156106f9576040516335debf6d60e01b815260040160405180910390fd5b821561091457600654604051636eb1769f60e11b81523360048201523060248201526000916001600160a01b03169063dd62ed3e90604401602060405180830381865afa15801561074e573d6000803e3d6000fd5b505050506040513d601f19601f8201168201806040525081019061077291906111e3565b905080821015610795576040516322ef70c760e21b815260040160405180910390fd5b6006546001600160a01b03166323b872dd336107b96000546001600160a01b031690565b6040516001600160e01b031960e085901b1681526001600160a01b03928316600482015291166024820152604481018590526064016020604051808303816000875af115801561080d573d6000803e3d6000fd5b505050506040513d601f19601f8201168201806040525081019061083191906111fc565b506002546040516340c10f1960e01b81526001600160a01b03888116600483015260248201889052909116906340c10f1990604401600060405180830381600087803b15801561088057600080fd5b505af1158015610894573d6000803e3d6000fd5b5050505081600560008282546108aa9190611166565b909155505060408051338152602081018790526060918101829052600491810191909152631554d11560e21b60808201527f0371644b355388a624a6177b002ed35bc804509fdde155c58472d42bd1ce3d089060a0015b60405180910390a1600192505050610b1a565b600754604051636eb1769f60e11b81523360048201523060248201526000916001600160a01b03169063dd62ed3e90604401602060405180830381865afa158015610963573d6000803e3d6000fd5b505050506040513d601f19601f8201168201806040525081019061098791906111e3565b9050808210156109aa576040516322ef70c760e21b815260040160405180910390fd5b6007546001600160a01b03166323b872dd336109ce6000546001600160a01b031690565b6040516001600160e01b031960e085901b1681526001600160a01b03928316600482015291166024820152604481018590526064016020604051808303816000875af1158015610a22573d6000803e3d6000fd5b505050506040513d601f19601f82011682018060405250810190610a4691906111fc565b506002546040516340c10f1960e01b81526001600160a01b03888116600483015260248201889052909116906340c10f1990604401600060405180830381600087803b158015610a9557600080fd5b505af1158015610aa9573d6000803e3d6000fd5b505050508160056000828254610abf9190611166565b909155505060408051338152602081018790526060918101829052600491810191909152635553444360e01b60808201527f0371644b355388a624a6177b002ed35bc804509fdde155c58472d42bd1ce3d089060a001610901565b9392505050565b6001546001600160a01b03163314610b6d5760405162461bcd60e51b815260206004820152600a60248201526937b7363c9030b236b4b760b11b60448201526064015b60405180910390fd5b600081815260096020908152604080832085845290915290205460ff1615610bd75760405162461bcd60e51b815260206004820152601a60248201527f7472616e7366657220616c72656164792070726f6365737365640000000000006044820152606401610b64565b600081815260096020908152604080832085845290915290819020805460ff1916600117905560025490516340c10f1960e01b81526001600160a01b03868116600483015260248201869052909116906340c10f1990604401600060405180830381600087803b158015610c4a57600080fd5b505af1158015610c5e573d6000803e3d6000fd5b5050604080513381526001600160a01b03881660208201529081018690524260608201526080810185905260a081018490527f21983e74886774514c2f52363af856c8f21656819f27c8d5fc28dfcc47c4ceb9925060c001905060405180910390a150505050565b610cce610f08565b60008111610d1e5760405162461bcd60e51b815260206004820152601f60248201527f5072696365206d7573742062652067726561746572207468616e205a65726f006044820152606401610b64565b600455565b60008060085483610d34919061112d565b9050600064e8d4a51000670de0b6b3a7640000610d51878561112d565b610d5b9190611144565b610d659190611144565b9050600060085482610d77919061112d565b90506000670de0b6b3a764000082610d8d610611565b610d97919061112d565b610da19190611144565b979650505050505050565b600254604051632770a7eb60e21b81526001600160a01b0386811660048301526024820185905290911690639dc29fac90604401600060405180830381600087803b158015610dfa57600080fd5b505af1158015610e0e573d6000803e3d6000fd5b5050600354604080516001600160a01b03898116825288166020820152808201879052426060820152608081019290925260a08201859052517fc56ba3c1c5b3710c52c20106d58f70110a7e83dc4e51178987eb8919adc384df93509081900360c0019150a160038054906000610e8483611219565b919050555050505050565b610e97610f08565b6001600160a01b038116610efc5760405162461bcd60e51b815260206004820152602660248201527f4f776e61626c653a206e6577206f776e657220697320746865207a65726f206160448201526564647265737360d01b6064820152608401610b64565b610f0581610f62565b50565b6000546001600160a01b031633146104305760405162461bcd60e51b815260206004820181905260248201527f4f776e61626c653a2063616c6c6572206973206e6f7420746865206f776e65726044820152606401610b64565b600080546001600160a01b038381166001600160a01b0319831681178455604051919092169283917f8be0079c531659141344cd1fd0a4f28419497f9722a3daafe3b4186f6b6457e09190a35050565b60008060408385031215610fc557600080fd5b50508035926020909101359150565b80356001600160a01b0381168114610feb57600080fd5b919050565b60006020828403121561100257600080fd5b610b1a82610fd4565b6000806040838503121561101e57600080fd5b61102783610fd4565b946020939093013593505050565b8015158114610f0557600080fd5b60008060006060848603121561105857600080fd5b61106184610fd4565b925060208401359150604084013561107881611035565b809150509250925092565b6000806000806080858703121561109957600080fd5b6110a285610fd4565b966020860135965060408601359560600135945092505050565b6000602082840312156110ce57600080fd5b5035919050565b600080600080608085870312156110eb57600080fd5b6110f485610fd4565b935061110260208601610fd4565b93969395505050506040820135916060013590565b634e487b7160e01b600052601160045260246000fd5b808202811582820484141761041857610418611117565b60008261116157634e487b7160e01b600052601260045260246000fd5b500490565b8082018082111561041857610418611117565b805169ffffffffffffffffffff81168114610feb57600080fd5b600080600080600060a086880312156111ab57600080fd5b6111b486611179565b94506020860151935060408601519250606086015191506111d760808701611179565b90509295509295909350565b6000602082840312156111f557600080fd5b5051919050565b60006020828403121561120e57600080fd5b8151610b1a81611035565b60006001820161122b5761122b611117565b506001019056fea2646970667358221220dd96895b483ee8dec1c0c601b222dc86a21002e10da0ed156335e9f9902865b664736f6c63430008140033",
  "linkReferences": {},
  "deployedLinkReferences": {}
}