{
  "_format": "hh-sol-artifact-1",
  "contractName": "Crypto_Data_Live_Presale",
  "sourceName": "contracts/Crypto_Data_Live_Presale.sol",
  "abi": [
    {
      "inputs": [
        {
          "internalType": "address",
          "name": "_usdt",
          "type": "address"
        },
        {
          "internalType": "address",
          "name": "_usdc",
          "type": "address"
        },
        {
          "internalType": "address",
          "name": "_saleToken",
          "type": "address"
        }
      ],
      "stateMutability": "nonpayable",
      "type": "constructor"
    },
    {
      "inputs": [],
      "name": "minimumAndMaximumLimit",
      "type": "error"
    },
    {
      "inputs": [],
      "name": "pleaseSendTokenPrice",
      "type": "error"
    },
    {
      "inputs": [],
      "name": "roundSupplyLimitExceed",
      "type": "error"
    },
    {
      "anonymous": false,
      "inputs": [
        {
          "indexed": true,
          "internalType": "address",
          "name": "previousOwner",
          "type": "address"
        },
        {
          "indexed": true,
          "internalType": "address",
          "name": "newOwner",
          "type": "address"
        }
      ],
      "name": "OwnershipTransferred",
      "type": "event"
    },
    {
      "anonymous": false,
      "inputs": [
        {
          "indexed": false,
          "internalType": "address",
          "name": "_addr",
          "type": "address"
        },
        {
          "indexed": false,
          "internalType": "uint256",
          "name": "_amount",
          "type": "uint256"
        },
        {
          "indexed": false,
          "internalType": "string",
          "name": "_paymentType",
          "type": "string"
        }
      ],
      "name": "buyHistory",
      "type": "event"
    },
    {
      "inputs": [
        {
          "internalType": "uint256",
          "name": "_amount",
          "type": "uint256"
        }
      ],
      "name": "buyWithETH",
      "outputs": [
        {
          "internalType": "bool",
          "name": "",
          "type": "bool"
        }
      ],
      "stateMutability": "payable",
      "type": "function"
    },
    {
      "inputs": [
        {
          "internalType": "uint256",
          "name": "_buyToken",
          "type": "uint256"
        },
        {
          "internalType": "bool",
          "name": "isUsdt",
          "type": "bool"
        }
      ],
      "name": "buyWithUSDT",
      "outputs": [
        {
          "internalType": "bool",
          "name": "",
          "type": "bool"
        }
      ],
      "stateMutability": "nonpayable",
      "type": "function"
    },
    {
      "inputs": [
        {
          "internalType": "uint256",
          "name": "_priceInUSDT",
          "type": "uint256"
        }
      ],
      "name": "changeSalePrice",
      "outputs": [],
      "stateMutability": "nonpayable",
      "type": "function"
    },
    {
      "inputs": [],
      "name": "getLatestUSDTPrice",
      "outputs": [
        {
          "internalType": "uint256",
          "name": "",
          "type": "uint256"
        }
      ],
      "stateMutability": "view",
      "type": "function"
    },
    {
      "inputs": [],
      "name": "owner",
      "outputs": [
        {
          "internalType": "address",
          "name": "",
          "type": "address"
        }
      ],
      "stateMutability": "view",
      "type": "function"
    },
    {
      "inputs": [],
      "name": "raisedAmount",
      "outputs": [
        {
          "internalType": "uint256",
          "name": "",
          "type": "uint256"
        }
      ],
      "stateMutability": "view",
      "type": "function"
    },
    {
      "inputs": [],
      "name": "renounceOwnership",
      "outputs": [],
      "stateMutability": "nonpayable",
      "type": "function"
    },
    {
      "inputs": [],
      "name": "salePrice",
      "outputs": [
        {
          "internalType": "uint256",
          "name": "",
          "type": "uint256"
        }
      ],
      "stateMutability": "view",
      "type": "function"
    },
    {
      "inputs": [
        {
          "internalType": "uint256",
          "name": "_amount",
          "type": "uint256"
        },
        {
          "internalType": "uint256",
          "name": "_roundPrice",
          "type": "uint256"
        }
      ],
      "name": "sellTokenInETHPrice",
      "outputs": [
        {
          "internalType": "uint256",
          "name": "",
          "type": "uint256"
        }
      ],
      "stateMutability": "view",
      "type": "function"
    },
    {
      "inputs": [
        {
          "internalType": "uint256",
          "name": "_amount",
          "type": "uint256"
        },
        {
          "internalType": "uint256",
          "name": "_roundPrice",
          "type": "uint256"
        }
      ],
      "name": "sellTokenInUDSTPrice",
      "outputs": [
        {
          "internalType": "uint256",
          "name": "",
          "type": "uint256"
        }
      ],
      "stateMutability": "view",
      "type": "function"
    },
    {
      "inputs": [
        {
          "internalType": "address",
          "name": "newOwner",
          "type": "address"
        }
      ],
      "name": "transferOwnership",
      "outputs": [],
      "stateMutability": "nonpayable",
      "type": "function"
    },
    {
      "inputs": [
        {
          "internalType": "uint256",
          "name": "_amount",
          "type": "uint256"
        }
      ],
      "name": "withdrawTokens",
      "outputs": [
        {
          "internalType": "bool",
          "name": "",
          "type": "bool"
        }
      ],
      "stateMutability": "nonpayable",
      "type": "function"
    }
  ],
  "bytecode": "0x608060405264e8d4a510006001553480156200001a57600080fd5b5060405162001beb38038062001beb83398181016040528101906200004091906200026c565b62000060620000546200013660201b60201c565b6200013e60201b60201c565b82600460006101000a81548173ffffffffffffffffffffffffffffffffffffffff021916908373ffffffffffffffffffffffffffffffffffffffff16021790555081600560006101000a81548173ffffffffffffffffffffffffffffffffffffffff021916908373ffffffffffffffffffffffffffffffffffffffff16021790555080600660006101000a81548173ffffffffffffffffffffffffffffffffffffffff021916908373ffffffffffffffffffffffffffffffffffffffff160217905550620186a0600281905550505050620002c8565b600033905090565b60008060009054906101000a900473ffffffffffffffffffffffffffffffffffffffff169050816000806101000a81548173ffffffffffffffffffffffffffffffffffffffff021916908373ffffffffffffffffffffffffffffffffffffffff1602179055508173ffffffffffffffffffffffffffffffffffffffff168173ffffffffffffffffffffffffffffffffffffffff167f8be0079c531659141344cd1fd0a4f28419497f9722a3daafe3b4186f6b6457e060405160405180910390a35050565b600080fd5b600073ffffffffffffffffffffffffffffffffffffffff82169050919050565b6000620002348262000207565b9050919050565b620002468162000227565b81146200025257600080fd5b50565b60008151905062000266816200023b565b92915050565b60008060006060848603121562000288576200028762000202565b5b6000620002988682870162000255565b9350506020620002ab8682870162000255565b9250506040620002be8682870162000255565b9150509250925092565b61191380620002d86000396000f3fe6080604052600436106100a75760003560e01c806398dd36bf1161006457806398dd36bf146101d5578063b562089614610200578063ba0dc0cd14610229578063c59ee1dc14610266578063f2fde38b14610291578063f51f96dd146102ba576100a7565b8063136021d9146100ac578063315a095d146100e95780634184bcce14610126578063715018a6146101635780638da5cb5b1461017a57806394dc9cf3146101a5575b600080fd5b3480156100b857600080fd5b506100d360048036038101906100ce9190611196565b6102e5565b6040516100e091906111e5565b60405180910390f35b3480156100f557600080fd5b50610110600480360381019061010b9190611200565b6109fb565b60405161011d91906111e5565b60405180910390f35b34801561013257600080fd5b5061014d6004803603810190610148919061122d565b610ab6565b60405161015a919061127c565b60405180910390f35b34801561016f57600080fd5b50610178610b07565b005b34801561018657600080fd5b5061018f610b1b565b60405161019c91906112d8565b60405180910390f35b6101bf60048036038101906101ba9190611200565b610b44565b6040516101cc91906111e5565b60405180910390f35b3480156101e157600080fd5b506101ea610e57565b6040516101f7919061127c565b60405180910390f35b34801561020c57600080fd5b5061022760048036038101906102229190611200565b610e66565b005b34801561023557600080fd5b50610250600480360381019061024b919061122d565b610ebb565b60405161025d919061127c565b60405180910390f35b34801561027257600080fd5b5061027b610f4a565b604051610288919061127c565b60405180910390f35b34801561029d57600080fd5b506102b860048036038101906102b3919061131f565b610f50565b005b3480156102c657600080fd5b506102cf610fd3565b6040516102dc919061127c565b60405180910390f35b6000806102f484600254610ab6565b9050620f424081108061030a575063b2d05e0081115b15610341576040517f35debf6d00000000000000000000000000000000000000000000000000000000815260040160405180910390fd5b82156106a05783600660009054906101000a900473ffffffffffffffffffffffffffffffffffffffff1673ffffffffffffffffffffffffffffffffffffffff166370a08231306040518263ffffffff1660e01b81526004016103a391906112d8565b602060405180830381865afa1580156103c0573d6000803e3d6000fd5b505050506040513d601f19601f820116820180604052508101906103e49190611361565b101561041c576040517f9210988b00000000000000000000000000000000000000000000000000000000815260040160405180910390fd5b6000600460009054906101000a900473ffffffffffffffffffffffffffffffffffffffff1673ffffffffffffffffffffffffffffffffffffffff1663dd62ed3e33306040518363ffffffff1660e01b815260040161047b92919061138e565b602060405180830381865afa158015610498573d6000803e3d6000fd5b505050506040513d601f19601f820116820180604052508101906104bc9190611361565b9050808210156104f8576040517f8bbdc31c00000000000000000000000000000000000000000000000000000000815260040160405180910390fd5b600460009054906101000a900473ffffffffffffffffffffffffffffffffffffffff1673ffffffffffffffffffffffffffffffffffffffff166323b872dd3361053f610b1b565b856040518463ffffffff1660e01b815260040161055e939291906113b7565b6020604051808303816000875af115801561057d573d6000803e3d6000fd5b505050506040513d601f19601f820116820180604052508101906105a19190611403565b50600660009054906101000a900473ffffffffffffffffffffffffffffffffffffffff1673ffffffffffffffffffffffffffffffffffffffff1663a9059cbb33876040518363ffffffff1660e01b81526004016105ff929190611430565b6020604051808303816000875af115801561061e573d6000803e3d6000fd5b505050506040513d601f19601f820116820180604052508101906106429190611403565b5081600360008282546106559190611488565b925050819055507f0371644b355388a624a6177b002ed35bc804509fdde155c58472d42bd1ce3d08338660405161068d929190611519565b60405180910390a16001925050506109f5565b83600660009054906101000a900473ffffffffffffffffffffffffffffffffffffffff1673ffffffffffffffffffffffffffffffffffffffff166370a08231306040518263ffffffff1660e01b81526004016106fc91906112d8565b602060405180830381865afa158015610719573d6000803e3d6000fd5b505050506040513d601f19601f8201168201806040525081019061073d9190611361565b1015610775576040517f9210988b00000000000000000000000000000000000000000000000000000000815260040160405180910390fd5b6000600560009054906101000a900473ffffffffffffffffffffffffffffffffffffffff1673ffffffffffffffffffffffffffffffffffffffff1663dd62ed3e33306040518363ffffffff1660e01b81526004016107d492919061138e565b602060405180830381865afa1580156107f1573d6000803e3d6000fd5b505050506040513d601f19601f820116820180604052508101906108159190611361565b905080821015610851576040517f8bbdc31c00000000000000000000000000000000000000000000000000000000815260040160405180910390fd5b600560009054906101000a900473ffffffffffffffffffffffffffffffffffffffff1673ffffffffffffffffffffffffffffffffffffffff166323b872dd33610898610b1b565b856040518463ffffffff1660e01b81526004016108b7939291906113b7565b6020604051808303816000875af11580156108d6573d6000803e3d6000fd5b505050506040513d601f19601f820116820180604052508101906108fa9190611403565b50600660009054906101000a900473ffffffffffffffffffffffffffffffffffffffff1673ffffffffffffffffffffffffffffffffffffffff1663a9059cbb33876040518363ffffffff1660e01b8152600401610958929190611430565b6020604051808303816000875af1158015610977573d6000803e3d6000fd5b505050506040513d601f19601f8201168201806040525081019061099b9190611403565b5081600360008282546109ae9190611488565b925050819055507f0371644b355388a624a6177b002ed35bc804509fdde155c58472d42bd1ce3d0833866040516109e69291906115a1565b60405180910390a16001925050505b92915050565b6000610a05610fd9565b600660009054906101000a900473ffffffffffffffffffffffffffffffffffffffff1673ffffffffffffffffffffffffffffffffffffffff1663a9059cbb610a4b610b1b565b846040518363ffffffff1660e01b8152600401610a69929190611430565b6020604051808303816000875af1158015610a88573d6000803e3d6000fd5b505050506040513d601f19601f82011682018060405250810190610aac9190611403565b5060019050919050565b60008060015483610ac791906115dd565b9050600064e8d4a51000670de0b6b3a76400008684610ae691906115dd565b610af0919061164e565b610afa919061164e565b9050809250505092915050565b610b0f610fd9565b610b196000611057565b565b60008060009054906101000a900473ffffffffffffffffffffffffffffffffffffffff16905090565b600081600660009054906101000a900473ffffffffffffffffffffffffffffffffffffffff1673ffffffffffffffffffffffffffffffffffffffff166370a08231306040518263ffffffff1660e01b8152600401610ba291906112d8565b602060405180830381865afa158015610bbf573d6000803e3d6000fd5b505050506040513d601f19601f82011682018060405250810190610be39190611361565b1015610c1b576040517f9210988b00000000000000000000000000000000000000000000000000000000815260040160405180910390fd5b6000610c2983600254610ab6565b9050620f4240811080610c3f575063b2d05e0081115b15610c76576040517f35debf6d00000000000000000000000000000000000000000000000000000000815260040160405180910390fd5b6000610c8484600254610ebb565b9050670de0b6b3a7640000811115610cd1576040517f08c379a0000000000000000000000000000000000000000000000000000000008152600401610cc8906116cb565b60405180910390fd5b80341015610d0b576040517f8bbdc31c00000000000000000000000000000000000000000000000000000000815260040160405180910390fd5b610d13610b1b565b73ffffffffffffffffffffffffffffffffffffffff166108fc349081150290604051600060405180830381858888f19350505050158015610d58573d6000803e3d6000fd5b50600660009054906101000a900473ffffffffffffffffffffffffffffffffffffffff1673ffffffffffffffffffffffffffffffffffffffff1663a9059cbb33866040518363ffffffff1660e01b8152600401610db6929190611430565b6020604051808303816000875af1158015610dd5573d6000803e3d6000fd5b505050506040513d601f19601f82011682018060405250810190610df99190611403565b508160036000828254610e0c9190611488565b925050819055507f0371644b355388a624a6177b002ed35bc804509fdde155c58472d42bd1ce3d083385604051610e44929190611737565b60405180910390a1600192505050919050565b600066010cc63a71114e905090565b610e6e610fd9565b60008111610eb1576040517f08c379a0000000000000000000000000000000000000000000000000000000008152600401610ea8906117bf565b60405180910390fd5b8060028190555050565b60008060015483610ecc91906115dd565b9050600064e8d4a51000670de0b6b3a76400008684610eeb91906115dd565b610ef5919061164e565b610eff919061164e565b9050600060015482610f1191906115dd565b90506000670de0b6b3a764000082610f27610e57565b610f3191906115dd565b610f3b919061164e565b90508094505050505092915050565b60035481565b610f58610fd9565b600073ffffffffffffffffffffffffffffffffffffffff168173ffffffffffffffffffffffffffffffffffffffff1603610fc7576040517f08c379a0000000000000000000000000000000000000000000000000000000008152600401610fbe90611851565b60405180910390fd5b610fd081611057565b50565b60025481565b610fe161111b565b73ffffffffffffffffffffffffffffffffffffffff16610fff610b1b565b73ffffffffffffffffffffffffffffffffffffffff1614611055576040517f08c379a000000000000000000000000000000000000000000000000000000000815260040161104c906118bd565b60405180910390fd5b565b60008060009054906101000a900473ffffffffffffffffffffffffffffffffffffffff169050816000806101000a81548173ffffffffffffffffffffffffffffffffffffffff021916908373ffffffffffffffffffffffffffffffffffffffff1602179055508173ffffffffffffffffffffffffffffffffffffffff168173ffffffffffffffffffffffffffffffffffffffff167f8be0079c531659141344cd1fd0a4f28419497f9722a3daafe3b4186f6b6457e060405160405180910390a35050565b600033905090565b600080fd5b6000819050919050565b61113b81611128565b811461114657600080fd5b50565b60008135905061115881611132565b92915050565b60008115159050919050565b6111738161115e565b811461117e57600080fd5b50565b6000813590506111908161116a565b92915050565b600080604083850312156111ad576111ac611123565b5b60006111bb85828601611149565b92505060206111cc85828601611181565b9150509250929050565b6111df8161115e565b82525050565b60006020820190506111fa60008301846111d6565b92915050565b60006020828403121561121657611215611123565b5b600061122484828501611149565b91505092915050565b6000806040838503121561124457611243611123565b5b600061125285828601611149565b925050602061126385828601611149565b9150509250929050565b61127681611128565b82525050565b6000602082019050611291600083018461126d565b92915050565b600073ffffffffffffffffffffffffffffffffffffffff82169050919050565b60006112c282611297565b9050919050565b6112d2816112b7565b82525050565b60006020820190506112ed60008301846112c9565b92915050565b6112fc816112b7565b811461130757600080fd5b50565b600081359050611319816112f3565b92915050565b60006020828403121561133557611334611123565b5b60006113438482850161130a565b91505092915050565b60008151905061135b81611132565b92915050565b60006020828403121561137757611376611123565b5b60006113858482850161134c565b91505092915050565b60006040820190506113a360008301856112c9565b6113b060208301846112c9565b9392505050565b60006060820190506113cc60008301866112c9565b6113d960208301856112c9565b6113e6604083018461126d565b949350505050565b6000815190506113fd8161116a565b92915050565b60006020828403121561141957611418611123565b5b6000611427848285016113ee565b91505092915050565b600060408201905061144560008301856112c9565b611452602083018461126d565b9392505050565b7f4e487b7100000000000000000000000000000000000000000000000000000000600052601160045260246000fd5b600061149382611128565b915061149e83611128565b92508282019050808211156114b6576114b5611459565b5b92915050565b600082825260208201905092915050565b7f5553445400000000000000000000000000000000000000000000000000000000600082015250565b60006115036004836114bc565b915061150e826114cd565b602082019050919050565b600060608201905061152e60008301856112c9565b61153b602083018461126d565b818103604083015261154c816114f6565b90509392505050565b7f5553444300000000000000000000000000000000000000000000000000000000600082015250565b600061158b6004836114bc565b915061159682611555565b602082019050919050565b60006060820190506115b660008301856112c9565b6115c3602083018461126d565b81810360408301526115d48161157e565b90509392505050565b60006115e882611128565b91506115f383611128565b925082820261160181611128565b9150828204841483151761161857611617611459565b5b5092915050565b7f4e487b7100000000000000000000000000000000000000000000000000000000600052601260045260246000fd5b600061165982611128565b915061166483611128565b9250826116745761167361161f565b5b828204905092915050565b7f427579204d6178696d756d203120457468657200000000000000000000000000600082015250565b60006116b56013836114bc565b91506116c08261167f565b602082019050919050565b600060208201905081810360008301526116e4816116a8565b9050919050565b7f424e420000000000000000000000000000000000000000000000000000000000600082015250565b60006117216003836114bc565b915061172c826116eb565b602082019050919050565b600060608201905061174c60008301856112c9565b611759602083018461126d565b818103604083015261176a81611714565b90509392505050565b7f5072696365206d7573742062652067726561746572207468616e205a65726f00600082015250565b60006117a9601f836114bc565b91506117b482611773565b602082019050919050565b600060208201905081810360008301526117d88161179c565b9050919050565b7f4f776e61626c653a206e6577206f776e657220697320746865207a65726f206160008201527f6464726573730000000000000000000000000000000000000000000000000000602082015250565b600061183b6026836114bc565b9150611846826117df565b604082019050919050565b6000602082019050818103600083015261186a8161182e565b9050919050565b7f4f776e61626c653a2063616c6c6572206973206e6f7420746865206f776e6572600082015250565b60006118a76020836114bc565b91506118b282611871565b602082019050919050565b600060208201905081810360008301526118d68161189a565b905091905056fea264697066735822122083e62e6ebefb82d313980bce933bc5ccffde99c2b570fd9a3d862fbc4a110fc364736f6c63430008140033",
  "linkReferences": {},
  "deployedLinkReferences": {}
}