{
  "_format": "hh-sol-artifact-1",
  "contractName": "WrappedCryptoDataLive",
  "sourceName": "contracts/WrappedTokenBase.sol",
  "abi": [
    {
      "inputs": [
        {
          "internalType": "string",
          "name": "name",
          "type": "string"
        },
        {
          "internalType": "string",
          "name": "symbol",
          "type": "string"
        },
        {
          "internalType": "address",
          "name": "_bridge",
          "type": "address"
        }
      ],
      "stateMutability": "nonpayable",
      "type": "constructor"
    },
    {
      "anonymous": false,
      "inputs": [
        {
          "indexed": true,
          "internalType": "address",
          "name": "owner",
          "type": "address"
        },
        {
          "indexed": true,
          "internalType": "address",
          "name": "spender",
          "type": "address"
        },
        {
          "indexed": false,
          "internalType": "uint256",
          "name": "value",
          "type": "uint256"
        }
      ],
      "name": "Approval",
      "type": "event"
    },
    {
      "anonymous": false,
      "inputs": [
        {
          "indexed": true,
          "internalType": "address",
          "name": "previousOwner",
          "type": "address"
        },
        {
          "indexed": true,
          "internalType": "address",
          "name": "newOwner",
          "type": "address"
        }
      ],
      "name": "OwnershipTransferred",
      "type": "event"
    },
    {
      "anonymous": false,
      "inputs": [
        {
          "indexed": true,
          "internalType": "address",
          "name": "from",
          "type": "address"
        },
        {
          "indexed": true,
          "internalType": "address",
          "name": "to",
          "type": "address"
        },
        {
          "indexed": false,
          "internalType": "uint256",
          "name": "value",
          "type": "uint256"
        }
      ],
      "name": "Transfer",
      "type": "event"
    },
    {
      "inputs": [
        {
          "internalType": "address",
          "name": "owner",
          "type": "address"
        },
        {
          "internalType": "address",
          "name": "spender",
          "type": "address"
        }
      ],
      "name": "allowance",
      "outputs": [
        {
          "internalType": "uint256",
          "name": "",
          "type": "uint256"
        }
      ],
      "stateMutability": "view",
      "type": "function"
    },
    {
      "inputs": [
        {
          "internalType": "address",
          "name": "spender",
          "type": "address"
        },
        {
          "internalType": "uint256",
          "name": "amount",
          "type": "uint256"
        }
      ],
      "name": "approve",
      "outputs": [
        {
          "internalType": "bool",
          "name": "",
          "type": "bool"
        }
      ],
      "stateMutability": "nonpayable",
      "type": "function"
    },
    {
      "inputs": [
        {
          "internalType": "address",
          "name": "account",
          "type": "address"
        }
      ],
      "name": "balanceOf",
      "outputs": [
        {
          "internalType": "uint256",
          "name": "",
          "type": "uint256"
        }
      ],
      "stateMutability": "view",
      "type": "function"
    },
    {
      "inputs": [],
      "name": "bridge",
      "outputs": [
        {
          "internalType": "address",
          "name": "",
          "type": "address"
        }
      ],
      "stateMutability": "view",
      "type": "function"
    },
    {
      "inputs": [
        {
          "internalType": "address",
          "name": "_owner",
          "type": "address"
        },
        {
          "internalType": "uint256",
          "name": "_amount",
          "type": "uint256"
        }
      ],
      "name": "burn",
      "outputs": [],
      "stateMutability": "nonpayable",
      "type": "function"
    },
    {
      "inputs": [],
      "name": "decimals",
      "outputs": [
        {
          "internalType": "uint8",
          "name": "",
          "type": "uint8"
        }
      ],
      "stateMutability": "view",
      "type": "function"
    },
    {
      "inputs": [
        {
          "internalType": "address",
          "name": "spender",
          "type": "address"
        },
        {
          "internalType": "uint256",
          "name": "subtractedValue",
          "type": "uint256"
        }
      ],
      "name": "decreaseAllowance",
      "outputs": [
        {
          "internalType": "bool",
          "name": "",
          "type": "bool"
        }
      ],
      "stateMutability": "nonpayable",
      "type": "function"
    },
    {
      "inputs": [
        {
          "internalType": "address",
          "name": "spender",
          "type": "address"
        },
        {
          "internalType": "uint256",
          "name": "addedValue",
          "type": "uint256"
        }
      ],
      "name": "increaseAllowance",
      "outputs": [
        {
          "internalType": "bool",
          "name": "",
          "type": "bool"
        }
      ],
      "stateMutability": "nonpayable",
      "type": "function"
    },
    {
      "inputs": [
        {
          "internalType": "address",
          "name": "_to",
          "type": "address"
        },
        {
          "internalType": "uint256",
          "name": "_amount",
          "type": "uint256"
        }
      ],
      "name": "mint",
      "outputs": [],
      "stateMutability": "nonpayable",
      "type": "function"
    },
    {
      "inputs": [],
      "name": "name",
      "outputs": [
        {
          "internalType": "string",
          "name": "",
          "type": "string"
        }
      ],
      "stateMutability": "view",
      "type": "function"
    },
    {
      "inputs": [],
      "name": "owner",
      "outputs": [
        {
          "internalType": "address",
          "name": "",
          "type": "address"
        }
      ],
      "stateMutability": "view",
      "type": "function"
    },
    {
      "inputs": [],
      "name": "renounceOwnership",
      "outputs": [],
      "stateMutability": "nonpayable",
      "type": "function"
    },
    {
      "inputs": [],
      "name": "symbol",
      "outputs": [
        {
          "internalType": "string",
          "name": "",
          "type": "string"
        }
      ],
      "stateMutability": "view",
      "type": "function"
    },
    {
      "inputs": [],
      "name": "totalSupply",
      "outputs": [
        {
          "internalType": "uint256",
          "name": "",
          "type": "uint256"
        }
      ],
      "stateMutability": "view",
      "type": "function"
    },
    {
      "inputs": [
        {
          "internalType": "address",
          "name": "to",
          "type": "address"
        },
        {
          "internalType": "uint256",
          "name": "amount",
          "type": "uint256"
        }
      ],
      "name": "transfer",
      "outputs": [
        {
          "internalType": "bool",
          "name": "",
          "type": "bool"
        }
      ],
      "stateMutability": "nonpayable",
      "type": "function"
    },
    {
      "inputs": [
        {
          "internalType": "address",
          "name": "from",
          "type": "address"
        },
        {
          "internalType": "address",
          "name": "to",
          "type": "address"
        },
        {
          "internalType": "uint256",
          "name": "amount",
          "type": "uint256"
        }
      ],
      "name": "transferFrom",
      "outputs": [
        {
          "internalType": "bool",
          "name": "",
          "type": "bool"
        }
      ],
      "stateMutability": "nonpayable",
      "type": "function"
    },
    {
      "inputs": [
        {
          "internalType": "address",
          "name": "newOwner",
          "type": "address"
        }
      ],
      "name": "transferOwnership",
      "outputs": [],
      "stateMutability": "nonpayable",
      "type": "function"
    },
    {
      "inputs": [
        {
          "internalType": "address",
          "name": "_newbridge",
          "type": "address"
        }
      ],
      "name": "updatebridge",
      "outputs": [],
      "stateMutability": "nonpayable",
      "type": "function"
    }
  ],
  "bytecode": "0x60806040523462000380576200118f803803806200001d8162000385565b9283398101606082820312620003805781516001600160401b0391908281116200038057816200004f918501620003ab565b6020918285015184811162000380576040916200006e918701620003ab565b9401516001600160a01b039485821694918590036200038057825182811162000280576003918254916001958684811c9416801562000375575b888510146200035f578190601f9485811162000309575b508890858311600114620002a25760009262000296575b505060001982861b1c191690861b1783555b8051938411620002805760049586548681811c9116801562000275575b82821014620002605783811162000215575b5080928511600114620001a757509383949184926000956200019b575b50501b92600019911b1c19161790555b60058054336001600160a01b03198083168217909355604051949091167f8be0079c531659141344cd1fd0a4f28419497f9722a3daafe3b4186f6b6457e0600080a36006541617600655610d7190816200041e8239f35b01519350388062000134565b92919084601f1981168860005285600020956000905b89838310620001fa5750505010620001df575b50505050811b01905562000144565b01519060f884600019921b161c1916905538808080620001d0565b858701518955909701969485019488935090810190620001bd565b87600052816000208480880160051c82019284891062000256575b0160051c019087905b8281106200024957505062000117565b6000815501879062000239565b9250819262000230565b602288634e487b7160e01b6000525260246000fd5b90607f169062000105565b634e487b7160e01b600052604160045260246000fd5b015190503880620000d6565b90889350601f19831691876000528a6000209260005b8c828210620002f25750508411620002d9575b505050811b018355620000e8565b015160001983881b60f8161c19169055388080620002cb565b8385015186558c97909501949384019301620002b8565b90915085600052886000208580850160051c8201928b861062000355575b918a91869594930160051c01915b82811062000345575050620000bf565b600081558594508a910162000335565b9250819262000327565b634e487b7160e01b600052602260045260246000fd5b93607f1693620000a8565b600080fd5b6040519190601f01601f191682016001600160401b038111838210176200028057604052565b919080601f84011215620003805782516001600160401b0381116200028057602090620003e1601f8201601f1916830162000385565b92818452828287010111620003805760005b8181106200040957508260009394955001015290565b8581018301518482018401528201620003f356fe6080604081815260048036101561001557600080fd5b600092833560e01c90816306fdde03146108a757508063095ea7b31461087d57806318160ddd1461085e57806323b872dd14610794578063313ce56714610778578063395093511461072857806339e2c84a146106e357806340c10f191461061457806370a08231146105dd578063715018a6146105805780638da5cb5b1461055757806395d89b41146104375780639dc29fac14610305578063a457c2d71461025e578063a9059cbb1461022d578063dd62ed3e146101e4578063e78cea92146101b75763f2fde38b146100e957600080fd5b346101b35760203660031901126101b3576101026109e5565b9061010b610a16565b6001600160a01b03918216928315610161575050600554826bffffffffffffffffffffffff60a01b821617600555167f8be0079c531659141344cd1fd0a4f28419497f9722a3daafe3b4186f6b6457e08380a380f35b906020608492519162461bcd60e51b8352820152602660248201527f4f776e61626c653a206e6577206f776e657220697320746865207a65726f206160448201526564647265737360d01b6064820152fd5b8280fd5b5050346101e057816003193601126101e05760065490516001600160a01b039091168152602090f35b5080fd5b5050346101e057806003193601126101e057806020926102026109e5565b61020a610a00565b6001600160a01b0391821683526001865283832091168252845220549051908152f35b5050346101e057806003193601126101e05760209061025761024d6109e5565b6024359033610a91565b5160018152f35b5082346103025782600319360112610302576102786109e5565b918360243592338152600160205281812060018060a01b03861682526020522054908282106102b1576020856102578585038733610bff565b608490602086519162461bcd60e51b8352820152602560248201527f45524332303a2064656372656173656420616c6c6f77616e63652062656c6f77604482015264207a65726f60d81b6064820152fd5b80fd5b508290346101e057826003193601126101e0576103206109e5565b600654602435916001600160a01b039161033d9083163314610d01565b169182156103ea5782845283602052848420549082821061039c57508184957fddf252ad1be2c89b69c2b068fc378daa952ba7f163c4a11628f55a4df523b3ef936020938688528785520381872055816002540360025551908152a380f35b608490602087519162461bcd60e51b8352820152602260248201527f45524332303a206275726e20616d6f756e7420657863656564732062616c616e604482015261636560f01b6064820152fd5b608490602086519162461bcd60e51b8352820152602160248201527f45524332303a206275726e2066726f6d20746865207a65726f206164647265736044820152607360f81b6064820152fd5b509190346101e057816003193601126101e057805190828454600181811c9080831692831561054d575b602093848410811461053a5783885290811561051e57506001146104c9575b505050829003601f01601f191682019267ffffffffffffffff8411838510176104b657508291826104b292528261099c565b0390f35b634e487b7160e01b815260418552602490fd5b8787529192508591837f8a35acfbc15ff81a39ae7d344fd709f28e8600b4aa8c65c6b64bfe7fe36bd19b5b83851061050a5750505050830101388080610480565b8054888601830152930192849082016104f4565b60ff1916878501525050151560051b8401019050388080610480565b634e487b7160e01b895260228a52602489fd5b91607f1691610461565b5050346101e057816003193601126101e05760055490516001600160a01b039091168152602090f35b8334610302578060031936011261030257610599610a16565b600580546001600160a01b0319811690915581906001600160a01b03167f8be0079c531659141344cd1fd0a4f28419497f9722a3daafe3b4186f6b6457e08280a380f35b5050346101e05760203660031901126101e05760209181906001600160a01b036106056109e5565b16815280845220549051908152f35b5090346101b357806003193601126101b35761062e6109e5565b60065460243592916001600160a01b039161064c9083163314610d01565b169283156106a157506020827fddf252ad1be2c89b69c2b068fc378daa952ba7f163c4a11628f55a4df523b3ef926106878795600254610a6e565b60025585855284835280852082815401905551908152a380f35b6020606492519162461bcd60e51b8352820152601f60248201527f45524332303a206d696e7420746f20746865207a65726f2061646472657373006044820152fd5b8334610302576020366003190112610302576106fd6109e5565b610705610a16565b60018060a01b03166bffffffffffffffffffffffff60a01b600654161760065580f35b5050346101e057806003193601126101e05761025760209261077161074b6109e5565b338352600186528483206001600160a01b03821684528652918490205460243590610a6e565b9033610bff565b5050346101e057816003193601126101e0576020905160128152f35b508290346101e05760603660031901126101e0576107b06109e5565b6107b8610a00565b91846044359460018060a01b0384168152600160205281812033825260205220549060001982036107f2575b602086610257878787610a91565b84821061081b57509183916108106020969561025795033383610bff565b9193948193506107e4565b606490602087519162461bcd60e51b8352820152601d60248201527f45524332303a20696e73756666696369656e7420616c6c6f77616e63650000006044820152fd5b5050346101e057816003193601126101e0576020906002549051908152f35b5050346101e057806003193601126101e05760209061025761089d6109e5565b6024359033610bff565b84915083346101b357826003193601126101b35782600354600181811c90808316928315610992575b602093848410811461053a57838852908115610976575060011461092057505050829003601f01601f191682019267ffffffffffffffff8411838510176104b657508291826104b292528261099c565b600387529192508591837fc2575a0e9e593c00f959f8c92f12db2869c3395a3b0502d05e2516446f71f85b5b8385106109625750505050830101858080610480565b80548886018301529301928490820161094c565b60ff1916878501525050151560051b8401019050858080610480565b91607f16916108d0565b6020808252825181830181905290939260005b8281106109d157505060409293506000838284010152601f8019910116010190565b8181018601518482016040015285016109af565b600435906001600160a01b03821682036109fb57565b600080fd5b602435906001600160a01b03821682036109fb57565b6005546001600160a01b03163303610a2a57565b606460405162461bcd60e51b815260206004820152602060248201527f4f776e61626c653a2063616c6c6572206973206e6f7420746865206f776e65726044820152fd5b91908201809211610a7b57565b634e487b7160e01b600052601160045260246000fd5b6001600160a01b03908116918215610bac5716918215610b5b57600082815280602052604081205491808310610b0757604082827fddf252ad1be2c89b69c2b068fc378daa952ba7f163c4a11628f55a4df523b3ef958760209652828652038282205586815220818154019055604051908152a3565b60405162461bcd60e51b815260206004820152602660248201527f45524332303a207472616e7366657220616d6f756e7420657863656564732062604482015265616c616e636560d01b6064820152608490fd5b60405162461bcd60e51b815260206004820152602360248201527f45524332303a207472616e7366657220746f20746865207a65726f206164647260448201526265737360e81b6064820152608490fd5b60405162461bcd60e51b815260206004820152602560248201527f45524332303a207472616e736665722066726f6d20746865207a65726f206164604482015264647265737360d81b6064820152608490fd5b6001600160a01b03908116918215610cb05716918215610c605760207f8c5be1e5ebec7d5bd14f71427d1e84f3dd0314c0f7b2291e5b200ac8c7c3b925918360005260018252604060002085600052825280604060002055604051908152a3565b60405162461bcd60e51b815260206004820152602260248201527f45524332303a20617070726f766520746f20746865207a65726f206164647265604482015261737360f01b6064820152608490fd5b60405162461bcd60e51b8152602060048201526024808201527f45524332303a20617070726f76652066726f6d20746865207a65726f206164646044820152637265737360e01b6064820152608490fd5b15610d0857565b60405162461bcd60e51b815260206004820152600b60248201526a6f6e6c792062726964676560a81b6044820152606490fdfea2646970667358221220bb96081ca69265248d11c4a17fa66f396657efc5a98c94773030048ab84c25e964736f6c63430008140033",
  "linkReferences": {},
  "deployedLinkReferences": {}
}