{
  "_format": "hh-sol-artifact-1",
  "contractName": "WrappedBridgeCDL",
  "sourceName": "contracts/WrapedCDLBridgeBasePresale.sol",
  "abi": [
    {
      "inputs": [
        {
          "internalType": "address",
          "name": "_usdt",
          "type": "address"
        },
        {
          "internalType": "address",
          "name": "_usdc",
          "type": "address"
        },
        {
          "internalType": "address",
          "name": "_token",
          "type": "address"
        }
      ],
      "stateMutability": "nonpayable",
      "type": "constructor"
    },
    {
      "inputs": [],
      "name": "minimumAndMaximumLimit",
      "type": "error"
    },
    {
      "inputs": [],
      "name": "pleaseSendTokenPrice",
      "type": "error"
    },
    {
      "anonymous": false,
      "inputs": [
        {
          "indexed": true,
          "internalType": "address",
          "name": "previousOwner",
          "type": "address"
        },
        {
          "indexed": true,
          "internalType": "address",
          "name": "newOwner",
          "type": "address"
        }
      ],
      "name": "OwnershipTransferred",
      "type": "event"
    },
    {
      "anonymous": false,
      "inputs": [
        {
          "indexed": false,
          "internalType": "address",
          "name": "from",
          "type": "address"
        },
        {
          "indexed": false,
          "internalType": "address",
          "name": "to",
          "type": "address"
        },
        {
          "indexed": false,
          "internalType": "uint256",
          "name": "amount",
          "type": "uint256"
        },
        {
          "indexed": false,
          "internalType": "uint256",
          "name": "date",
          "type": "uint256"
        },
        {
          "indexed": false,
          "internalType": "uint256",
          "name": "nonce",
          "type": "uint256"
        },
        {
          "indexed": false,
          "internalType": "uint256",
          "name": "chainId",
          "type": "uint256"
        }
      ],
      "name": "WrappedBurn",
      "type": "event"
    },
    {
      "anonymous": false,
      "inputs": [
        {
          "indexed": false,
          "internalType": "address",
          "name": "from",
          "type": "address"
        },
        {
          "indexed": false,
          "internalType": "address",
          "name": "to",
          "type": "address"
        },
        {
          "indexed": false,
          "internalType": "uint256",
          "name": "amount",
          "type": "uint256"
        },
        {
          "indexed": false,
          "internalType": "uint256",
          "name": "date",
          "type": "uint256"
        },
        {
          "indexed": false,
          "internalType": "uint256",
          "name": "nonce",
          "type": "uint256"
        },
        {
          "indexed": false,
          "internalType": "uint256",
          "name": "chainId",
          "type": "uint256"
        }
      ],
      "name": "WrappedMint",
      "type": "event"
    },
    {
      "anonymous": false,
      "inputs": [
        {
          "indexed": false,
          "internalType": "address",
          "name": "_addr",
          "type": "address"
        },
        {
          "indexed": false,
          "internalType": "uint256",
          "name": "_amount",
          "type": "uint256"
        },
        {
          "indexed": false,
          "internalType": "string",
          "name": "_paymentType",
          "type": "string"
        }
      ],
      "name": "buyHistory",
      "type": "event"
    },
    {
      "inputs": [
        {
          "internalType": "address",
          "name": "_from",
          "type": "address"
        },
        {
          "internalType": "address",
          "name": "_to",
          "type": "address"
        },
        {
          "internalType": "uint256",
          "name": "_amount",
          "type": "uint256"
        },
        {
          "internalType": "uint256",
          "name": "_chainId",
          "type": "uint256"
        }
      ],
      "name": "burn",
      "outputs": [],
      "stateMutability": "nonpayable",
      "type": "function"
    },
    {
      "inputs": [
        {
          "internalType": "address",
          "name": "_to",
          "type": "address"
        },
        {
          "internalType": "uint256",
          "name": "_amount",
          "type": "uint256"
        }
      ],
      "name": "buyWithBNB",
      "outputs": [
        {
          "internalType": "bool",
          "name": "",
          "type": "bool"
        }
      ],
      "stateMutability": "payable",
      "type": "function"
    },
    {
      "inputs": [
        {
          "internalType": "address",
          "name": "_to",
          "type": "address"
        },
        {
          "internalType": "uint256",
          "name": "_buyToken",
          "type": "uint256"
        },
        {
          "internalType": "bool",
          "name": "isUsdt",
          "type": "bool"
        }
      ],
      "name": "buyWithUSDT",
      "outputs": [
        {
          "internalType": "bool",
          "name": "",
          "type": "bool"
        }
      ],
      "stateMutability": "nonpayable",
      "type": "function"
    },
    {
      "inputs": [
        {
          "internalType": "uint256",
          "name": "_priceInUSDT",
          "type": "uint256"
        }
      ],
      "name": "changeSalePrice",
      "outputs": [],
      "stateMutability": "nonpayable",
      "type": "function"
    },
    {
      "inputs": [],
      "name": "getLatestUSDTPrice",
      "outputs": [
        {
          "internalType": "uint256",
          "name": "",
          "type": "uint256"
        }
      ],
      "stateMutability": "view",
      "type": "function"
    },
    {
      "inputs": [
        {
          "internalType": "address",
          "name": "_to",
          "type": "address"
        },
        {
          "internalType": "uint256",
          "name": "_amount",
          "type": "uint256"
        },
        {
          "internalType": "uint256",
          "name": "_nonce",
          "type": "uint256"
        },
        {
          "internalType": "uint256",
          "name": "_chainId",
          "type": "uint256"
        }
      ],
      "name": "mint",
      "outputs": [],
      "stateMutability": "nonpayable",
      "type": "function"
    },
    {
      "inputs": [],
      "name": "nonce",
      "outputs": [
        {
          "internalType": "uint256",
          "name": "",
          "type": "uint256"
        }
      ],
      "stateMutability": "view",
      "type": "function"
    },
    {
      "inputs": [],
      "name": "owner",
      "outputs": [
        {
          "internalType": "address",
          "name": "",
          "type": "address"
        }
      ],
      "stateMutability": "view",
      "type": "function"
    },
    {
      "inputs": [
        {
          "internalType": "uint256",
          "name": "",
          "type": "uint256"
        },
        {
          "internalType": "uint256",
          "name": "",
          "type": "uint256"
        }
      ],
      "name": "processedNonces",
      "outputs": [
        {
          "internalType": "bool",
          "name": "",
          "type": "bool"
        }
      ],
      "stateMutability": "view",
      "type": "function"
    },
    {
      "inputs": [],
      "name": "raisedAmount",
      "outputs": [
        {
          "internalType": "uint256",
          "name": "",
          "type": "uint256"
        }
      ],
      "stateMutability": "view",
      "type": "function"
    },
    {
      "inputs": [],
      "name": "renounceOwnership",
      "outputs": [],
      "stateMutability": "nonpayable",
      "type": "function"
    },
    {
      "inputs": [],
      "name": "salePrice",
      "outputs": [
        {
          "internalType": "uint256",
          "name": "",
          "type": "uint256"
        }
      ],
      "stateMutability": "view",
      "type": "function"
    },
    {
      "inputs": [
        {
          "internalType": "uint256",
          "name": "_amount",
          "type": "uint256"
        }
      ],
      "name": "sellTokenInETHPrice",
      "outputs": [
        {
          "internalType": "uint256",
          "name": "",
          "type": "uint256"
        }
      ],
      "stateMutability": "view",
      "type": "function"
    },
    {
      "inputs": [
        {
          "internalType": "uint256",
          "name": "_amount",
          "type": "uint256"
        }
      ],
      "name": "sellTokenInUDSTPrice",
      "outputs": [
        {
          "internalType": "uint256",
          "name": "",
          "type": "uint256"
        }
      ],
      "stateMutability": "view",
      "type": "function"
    },
    {
      "inputs": [],
      "name": "token",
      "outputs": [
        {
          "internalType": "contract IToken",
          "name": "",
          "type": "address"
        }
      ],
      "stateMutability": "view",
      "type": "function"
    },
    {
      "inputs": [
        {
          "internalType": "address",
          "name": "newOwner",
          "type": "address"
        }
      ],
      "name": "transferOwnership",
      "outputs": [],
      "stateMutability": "nonpayable",
      "type": "function"
    },
    {
      "inputs": [
        {
          "internalType": "address",
          "name": "_newToken",
          "type": "address"
        }
      ],
      "name": "updateToken",
      "outputs": [],
      "stateMutability": "nonpayable",
      "type": "function"
    }
  ],
  "bytecode": "0x60806040523480156200001157600080fd5b5060405162001e7e38038062001e7e833981810160405281019062000037919062000268565b620000576200004b6200013260201b60201c565b6200013a60201b60201c565b82600560006101000a81548173ffffffffffffffffffffffffffffffffffffffff021916908373ffffffffffffffffffffffffffffffffffffffff16021790555081600660006101000a81548173ffffffffffffffffffffffffffffffffffffffff021916908373ffffffffffffffffffffffffffffffffffffffff16021790555080600160006101000a81548173ffffffffffffffffffffffffffffffffffffffff021916908373ffffffffffffffffffffffffffffffffffffffff16021790555067016345785d8a0000600381905550505050620002c4565b600033905090565b60008060009054906101000a900473ffffffffffffffffffffffffffffffffffffffff169050816000806101000a81548173ffffffffffffffffffffffffffffffffffffffff021916908373ffffffffffffffffffffffffffffffffffffffff1602179055508173ffffffffffffffffffffffffffffffffffffffff168173ffffffffffffffffffffffffffffffffffffffff167f8be0079c531659141344cd1fd0a4f28419497f9722a3daafe3b4186f6b6457e060405160405180910390a35050565b600080fd5b600073ffffffffffffffffffffffffffffffffffffffff82169050919050565b6000620002308262000203565b9050919050565b620002428162000223565b81146200024e57600080fd5b50565b600081519050620002628162000237565b92915050565b600080600060608486031215620002845762000283620001fe565b5b6000620002948682870162000251565b9350506020620002a78682870162000251565b9250506040620002ba8682870162000251565b9150509250925092565b611baa80620002d46000396000f3fe6080604052600436106100fe5760003560e01c8063b562089611610095578063d7020d0a11610064578063d7020d0a14610335578063f2fde38b1461035e578063f4ecc6e314610387578063f51f96dd146103b7578063fc0c546a146103e2576100fe565b8063b562089614610267578063c59ee1dc14610290578063cf28a784146102bb578063d3838ba0146102f8576100fe565b806398dd36bf116100d157806398dd36bf146101ab5780639d6e1cca146101d6578063a647e8ec14610213578063affed0e01461023c576100fe565b80635827881814610103578063715018a6146101405780637ad3def2146101575780638da5cb5b14610180575b600080fd5b34801561010f57600080fd5b5061012a600480360381019061012591906111b1565b61040d565b60405161013791906111ed565b60405180910390f35b34801561014c57600080fd5b5061015561043c565b005b34801561016357600080fd5b5061017e60048036038101906101799190611266565b610450565b005b34801561018c57600080fd5b5061019561049c565b6040516101a291906112a2565b60405180910390f35b3480156101b757600080fd5b506101c06104c5565b6040516101cd91906111ed565b60405180910390f35b3480156101e257600080fd5b506101fd60048036038101906101f891906112f5565b6104d4565b60405161020a9190611357565b60405180910390f35b34801561021f57600080fd5b5061023a60048036038101906102359190611372565b610a25565b005b34801561024857600080fd5b50610251610bb8565b60405161025e91906111ed565b60405180910390f35b34801561027357600080fd5b5061028e600480360381019061028991906111b1565b610bbe565b005b34801561029c57600080fd5b506102a5610c13565b6040516102b291906111ed565b60405180910390f35b3480156102c757600080fd5b506102e260048036038101906102dd91906111b1565b610c19565b6040516102ef91906111ed565b60405180910390f35b34801561030457600080fd5b5061031f600480360381019061031a91906113d9565b610c3e565b60405161032c9190611357565b60405180910390f35b34801561034157600080fd5b5061035c60048036038101906103579190611419565b610c6d565b005b34801561036a57600080fd5b5061038560048036038101906103809190611266565b610d5d565b005b6103a1600480360381019061039c9190611480565b610de0565b6040516103ae9190611357565b60405180910390f35b3480156103c357600080fd5b506103cc610fc6565b6040516103d991906111ed565b60405180910390f35b3480156103ee57600080fd5b506103f7610fcc565b604051610404919061151f565b60405180910390f35b600080670de0b6b3a7640000836003546104279190611569565b61043191906115da565b905080915050919050565b610444610ff2565b61044e6000611070565b565b610458610ff2565b80600160006101000a81548173ffffffffffffffffffffffffffffffffffffffff021916908373ffffffffffffffffffffffffffffffffffffffff16021790555050565b60008060009054906101000a900473ffffffffffffffffffffffffffffffffffffffff16905090565b600066057cc9574ffbfa905090565b6000806104e08461040d565b9050670de0b6b3a7640000811080610501575069152d02c7e14af680000081115b15610538576040517f35debf6d00000000000000000000000000000000000000000000000000000000815260040160405180910390fd5b82156107b0576000600560009054906101000a900473ffffffffffffffffffffffffffffffffffffffff1673ffffffffffffffffffffffffffffffffffffffff1663dd62ed3e33306040518363ffffffff1660e01b815260040161059d92919061160b565b602060405180830381865afa1580156105ba573d6000803e3d6000fd5b505050506040513d601f19601f820116820180604052508101906105de9190611649565b90508082101561061a576040517f8bbdc31c00000000000000000000000000000000000000000000000000000000815260040160405180910390fd5b600560009054906101000a900473ffffffffffffffffffffffffffffffffffffffff1673ffffffffffffffffffffffffffffffffffffffff166323b872dd3361066161049c565b856040518463ffffffff1660e01b815260040161068093929190611676565b6020604051808303816000875af115801561069f573d6000803e3d6000fd5b505050506040513d601f19601f820116820180604052508101906106c391906116c2565b50600160009054906101000a900473ffffffffffffffffffffffffffffffffffffffff1673ffffffffffffffffffffffffffffffffffffffff166340c10f1987876040518363ffffffff1660e01b81526004016107219291906116ef565b600060405180830381600087803b15801561073b57600080fd5b505af115801561074f573d6000803e3d6000fd5b5050505081600460008282546107659190611718565b925050819055507f0371644b355388a624a6177b002ed35bc804509fdde155c58472d42bd1ce3d08338660405161079d9291906117a9565b60405180910390a1600192505050610a1e565b6000600660009054906101000a900473ffffffffffffffffffffffffffffffffffffffff1673ffffffffffffffffffffffffffffffffffffffff1663dd62ed3e33306040518363ffffffff1660e01b815260040161080f92919061160b565b602060405180830381865afa15801561082c573d6000803e3d6000fd5b505050506040513d601f19601f820116820180604052508101906108509190611649565b90508082101561088c576040517f8bbdc31c00000000000000000000000000000000000000000000000000000000815260040160405180910390fd5b600660009054906101000a900473ffffffffffffffffffffffffffffffffffffffff1673ffffffffffffffffffffffffffffffffffffffff166323b872dd336108d361049c565b856040518463ffffffff1660e01b81526004016108f293929190611676565b6020604051808303816000875af1158015610911573d6000803e3d6000fd5b505050506040513d601f19601f8201168201806040525081019061093591906116c2565b50600160009054906101000a900473ffffffffffffffffffffffffffffffffffffffff1673ffffffffffffffffffffffffffffffffffffffff166340c10f1987876040518363ffffffff1660e01b81526004016109939291906116ef565b600060405180830381600087803b1580156109ad57600080fd5b505af11580156109c1573d6000803e3d6000fd5b5050505081600460008282546109d79190611718565b925050819055507f0371644b355388a624a6177b002ed35bc804509fdde155c58472d42bd1ce3d083386604051610a0f929190611831565b60405180910390a16001925050505b9392505050565b610a2d610ff2565b6000151560076000838152602001908152602001600020600084815260200190815260200160002060009054906101000a900460ff16151514610aa5576040517f08c379a0000000000000000000000000000000000000000000000000000000008152600401610a9c906118b9565b60405180910390fd5b600160076000838152602001908152602001600020600084815260200190815260200160002060006101000a81548160ff021916908315150217905550600160009054906101000a900473ffffffffffffffffffffffffffffffffffffffff1673ffffffffffffffffffffffffffffffffffffffff166340c10f1985856040518363ffffffff1660e01b8152600401610b3f9291906116ef565b600060405180830381600087803b158015610b5957600080fd5b505af1158015610b6d573d6000803e3d6000fd5b505050507f21983e74886774514c2f52363af856c8f21656819f27c8d5fc28dfcc47c4ceb9338585428686604051610baa969594939291906118d9565b60405180910390a150505050565b60025481565b610bc6610ff2565b60008111610c09576040517f08c379a0000000000000000000000000000000000000000000000000000000008152600401610c0090611986565b60405180910390fd5b8060038190555050565b60045481565b600080610c258361040d565b90506000610c3282611134565b90508092505050919050565b60076020528160005260406000206020528060005260406000206000915091509054906101000a900460ff1681565b600160009054906101000a900473ffffffffffffffffffffffffffffffffffffffff1673ffffffffffffffffffffffffffffffffffffffff16639dc29fac85846040518363ffffffff1660e01b8152600401610cca9291906116ef565b600060405180830381600087803b158015610ce457600080fd5b505af1158015610cf8573d6000803e3d6000fd5b505050507fc56ba3c1c5b3710c52c20106d58f70110a7e83dc4e51178987eb8919adc384df8484844260025486604051610d37969594939291906118d9565b60405180910390a160026000815480929190610d52906119a6565b919050555050505050565b610d65610ff2565b600073ffffffffffffffffffffffffffffffffffffffff168173ffffffffffffffffffffffffffffffffffffffff1603610dd4576040517f08c379a0000000000000000000000000000000000000000000000000000000008152600401610dcb90611a60565b60405180910390fd5b610ddd81611070565b50565b600080610dec8361040d565b9050670de0b6b3a7640000811080610e0d575069152d02c7e14af680000081115b15610e44576040517f35debf6d00000000000000000000000000000000000000000000000000000000815260040160405180910390fd5b6000610e4f84610c19565b905080341015610e8b576040517f8bbdc31c00000000000000000000000000000000000000000000000000000000815260040160405180910390fd5b610e9361049c565b73ffffffffffffffffffffffffffffffffffffffff166108fc349081150290604051600060405180830381858888f19350505050158015610ed8573d6000803e3d6000fd5b50600160009054906101000a900473ffffffffffffffffffffffffffffffffffffffff1673ffffffffffffffffffffffffffffffffffffffff166340c10f1986866040518363ffffffff1660e01b8152600401610f369291906116ef565b600060405180830381600087803b158015610f5057600080fd5b505af1158015610f64573d6000803e3d6000fd5b505050508160046000828254610f7a9190611718565b925050819055507f0371644b355388a624a6177b002ed35bc804509fdde155c58472d42bd1ce3d083385604051610fb2929190611acc565b60405180910390a160019250505092915050565b60035481565b600160009054906101000a900473ffffffffffffffffffffffffffffffffffffffff1681565b610ffa61116e565b73ffffffffffffffffffffffffffffffffffffffff1661101861049c565b73ffffffffffffffffffffffffffffffffffffffff161461106e576040517f08c379a000000000000000000000000000000000000000000000000000000000815260040161106590611b54565b60405180910390fd5b565b60008060009054906101000a900473ffffffffffffffffffffffffffffffffffffffff169050816000806101000a81548173ffffffffffffffffffffffffffffffffffffffff021916908373ffffffffffffffffffffffffffffffffffffffff1602179055508173ffffffffffffffffffffffffffffffffffffffff168173ffffffffffffffffffffffffffffffffffffffff167f8be0079c531659141344cd1fd0a4f28419497f9722a3daafe3b4186f6b6457e060405160405180910390a35050565b600080670de0b6b3a76400008361114b91906115da565b90506000816111586104c5565b6111629190611569565b90508092505050919050565b600033905090565b600080fd5b6000819050919050565b61118e8161117b565b811461119957600080fd5b50565b6000813590506111ab81611185565b92915050565b6000602082840312156111c7576111c6611176565b5b60006111d58482850161119c565b91505092915050565b6111e78161117b565b82525050565b600060208201905061120260008301846111de565b92915050565b600073ffffffffffffffffffffffffffffffffffffffff82169050919050565b600061123382611208565b9050919050565b61124381611228565b811461124e57600080fd5b50565b6000813590506112608161123a565b92915050565b60006020828403121561127c5761127b611176565b5b600061128a84828501611251565b91505092915050565b61129c81611228565b82525050565b60006020820190506112b76000830184611293565b92915050565b60008115159050919050565b6112d2816112bd565b81146112dd57600080fd5b50565b6000813590506112ef816112c9565b92915050565b60008060006060848603121561130e5761130d611176565b5b600061131c86828701611251565b935050602061132d8682870161119c565b925050604061133e868287016112e0565b9150509250925092565b611351816112bd565b82525050565b600060208201905061136c6000830184611348565b92915050565b6000806000806080858703121561138c5761138b611176565b5b600061139a87828801611251565b94505060206113ab8782880161119c565b93505060406113bc8782880161119c565b92505060606113cd8782880161119c565b91505092959194509250565b600080604083850312156113f0576113ef611176565b5b60006113fe8582860161119c565b925050602061140f8582860161119c565b9150509250929050565b6000806000806080858703121561143357611432611176565b5b600061144187828801611251565b945050602061145287828801611251565b93505060406114638782880161119c565b92505060606114748782880161119c565b91505092959194509250565b6000806040838503121561149757611496611176565b5b60006114a585828601611251565b92505060206114b68582860161119c565b9150509250929050565b6000819050919050565b60006114e56114e06114db84611208565b6114c0565b611208565b9050919050565b60006114f7826114ca565b9050919050565b6000611509826114ec565b9050919050565b611519816114fe565b82525050565b60006020820190506115346000830184611510565b92915050565b7f4e487b7100000000000000000000000000000000000000000000000000000000600052601160045260246000fd5b60006115748261117b565b915061157f8361117b565b925082820261158d8161117b565b915082820484148315176115a4576115a361153a565b5b5092915050565b7f4e487b7100000000000000000000000000000000000000000000000000000000600052601260045260246000fd5b60006115e58261117b565b91506115f08361117b565b925082611600576115ff6115ab565b5b828204905092915050565b60006040820190506116206000830185611293565b61162d6020830184611293565b9392505050565b60008151905061164381611185565b92915050565b60006020828403121561165f5761165e611176565b5b600061166d84828501611634565b91505092915050565b600060608201905061168b6000830186611293565b6116986020830185611293565b6116a560408301846111de565b949350505050565b6000815190506116bc816112c9565b92915050565b6000602082840312156116d8576116d7611176565b5b60006116e6848285016116ad565b91505092915050565b60006040820190506117046000830185611293565b61171160208301846111de565b9392505050565b60006117238261117b565b915061172e8361117b565b92508282019050808211156117465761174561153a565b5b92915050565b600082825260208201905092915050565b7f5553445400000000000000000000000000000000000000000000000000000000600082015250565b600061179360048361174c565b915061179e8261175d565b602082019050919050565b60006060820190506117be6000830185611293565b6117cb60208301846111de565b81810360408301526117dc81611786565b90509392505050565b7f5553444300000000000000000000000000000000000000000000000000000000600082015250565b600061181b60048361174c565b9150611826826117e5565b602082019050919050565b60006060820190506118466000830185611293565b61185360208301846111de565b81810360408301526118648161180e565b90509392505050565b7f7472616e7366657220616c72656164792070726f636573736564000000000000600082015250565b60006118a3601a8361174c565b91506118ae8261186d565b602082019050919050565b600060208201905081810360008301526118d281611896565b9050919050565b600060c0820190506118ee6000830189611293565b6118fb6020830188611293565b61190860408301876111de565b61191560608301866111de565b61192260808301856111de565b61192f60a08301846111de565b979650505050505050565b7f5072696365206d7573742062652067726561746572207468616e205a65726f00600082015250565b6000611970601f8361174c565b915061197b8261193a565b602082019050919050565b6000602082019050818103600083015261199f81611963565b9050919050565b60006119b18261117b565b91507fffffffffffffffffffffffffffffffffffffffffffffffffffffffffffffffff82036119e3576119e261153a565b5b600182019050919050565b7f4f776e61626c653a206e6577206f776e657220697320746865207a65726f206160008201527f6464726573730000000000000000000000000000000000000000000000000000602082015250565b6000611a4a60268361174c565b9150611a55826119ee565b604082019050919050565b60006020820190508181036000830152611a7981611a3d565b9050919050565b7f424e420000000000000000000000000000000000000000000000000000000000600082015250565b6000611ab660038361174c565b9150611ac182611a80565b602082019050919050565b6000606082019050611ae16000830185611293565b611aee60208301846111de565b8181036040830152611aff81611aa9565b90509392505050565b7f4f776e61626c653a2063616c6c6572206973206e6f7420746865206f776e6572600082015250565b6000611b3e60208361174c565b9150611b4982611b08565b602082019050919050565b60006020820190508181036000830152611b6d81611b31565b905091905056fea26469706673582212208fd1ee6dd1d16b5678c22ba0ef41b910c7abd45561c26911aa635f6293d1a23364736f6c63430008140033",
  "linkReferences": {},
  "deployedLinkReferences": {}
}