{
  "_format": "hh-sol-artifact-1",
  "contractName": "WrappedBridgeCDL",
  "sourceName": "contracts/WrapedBridgeBase.sol",
  "abi": [
    {
      "inputs": [
        {
          "internalType": "address",
          "name": "_usdt",
          "type": "address"
        },
        {
          "internalType": "address",
          "name": "_usdc",
          "type": "address"
        },
        {
          "internalType": "address",
          "name": "_token",
          "type": "address"
        },
        {
          "internalType": "address",
          "name": "_admin",
          "type": "address"
        }
      ],
      "stateMutability": "nonpayable",
      "type": "constructor"
    },
    {
      "inputs": [],
      "name": "invalidUSDTPrice",
      "type": "error"
    },
    {
      "inputs": [],
      "name": "minimumAndMaximumLimit",
      "type": "error"
    },
    {
      "inputs": [],
      "name": "pleaseSendTokenPrice",
      "type": "error"
    },
    {
      "anonymous": false,
      "inputs": [
        {
          "indexed": true,
          "internalType": "address",
          "name": "previousOwner",
          "type": "address"
        },
        {
          "indexed": true,
          "internalType": "address",
          "name": "newOwner",
          "type": "address"
        }
      ],
      "name": "OwnershipTransferred",
      "type": "event"
    },
    {
      "anonymous": false,
      "inputs": [
        {
          "indexed": false,
          "internalType": "address",
          "name": "from",
          "type": "address"
        },
        {
          "indexed": false,
          "internalType": "address",
          "name": "to",
          "type": "address"
        },
        {
          "indexed": false,
          "internalType": "uint256",
          "name": "amount",
          "type": "uint256"
        },
        {
          "indexed": false,
          "internalType": "uint256",
          "name": "date",
          "type": "uint256"
        },
        {
          "indexed": false,
          "internalType": "uint256",
          "name": "nonce",
          "type": "uint256"
        },
        {
          "indexed": false,
          "internalType": "uint256",
          "name": "chainId",
          "type": "uint256"
        }
      ],
      "name": "WrappedBurn",
      "type": "event"
    },
    {
      "anonymous": false,
      "inputs": [
        {
          "indexed": false,
          "internalType": "address",
          "name": "from",
          "type": "address"
        },
        {
          "indexed": false,
          "internalType": "address",
          "name": "to",
          "type": "address"
        },
        {
          "indexed": false,
          "internalType": "uint256",
          "name": "amount",
          "type": "uint256"
        },
        {
          "indexed": false,
          "internalType": "uint256",
          "name": "date",
          "type": "uint256"
        },
        {
          "indexed": false,
          "internalType": "uint256",
          "name": "nonce",
          "type": "uint256"
        },
        {
          "indexed": false,
          "internalType": "uint256",
          "name": "chainId",
          "type": "uint256"
        }
      ],
      "name": "WrappedMint",
      "type": "event"
    },
    {
      "anonymous": false,
      "inputs": [
        {
          "indexed": false,
          "internalType": "address",
          "name": "_addr",
          "type": "address"
        },
        {
          "indexed": false,
          "internalType": "uint256",
          "name": "_amount",
          "type": "uint256"
        },
        {
          "indexed": false,
          "internalType": "string",
          "name": "_paymentType",
          "type": "string"
        }
      ],
      "name": "buyHistory",
      "type": "event"
    },
    {
      "inputs": [],
      "name": "admin",
      "outputs": [
        {
          "internalType": "address",
          "name": "",
          "type": "address"
        }
      ],
      "stateMutability": "view",
      "type": "function"
    },
    {
      "inputs": [
        {
          "internalType": "address",
          "name": "_from",
          "type": "address"
        },
        {
          "internalType": "address",
          "name": "_to",
          "type": "address"
        },
        {
          "internalType": "uint256",
          "name": "_amount",
          "type": "uint256"
        },
        {
          "internalType": "uint256",
          "name": "_chainId",
          "type": "uint256"
        }
      ],
      "name": "burn",
      "outputs": [],
      "stateMutability": "nonpayable",
      "type": "function"
    },
    {
      "inputs": [
        {
          "internalType": "address",
          "name": "_to",
          "type": "address"
        },
        {
          "internalType": "uint256",
          "name": "_amount",
          "type": "uint256"
        }
      ],
      "name": "buyWithETH",
      "outputs": [
        {
          "internalType": "bool",
          "name": "",
          "type": "bool"
        }
      ],
      "stateMutability": "payable",
      "type": "function"
    },
    {
      "inputs": [
        {
          "internalType": "address",
          "name": "_to",
          "type": "address"
        },
        {
          "internalType": "uint256",
          "name": "_buyToken",
          "type": "uint256"
        },
        {
          "internalType": "bool",
          "name": "isUsdt",
          "type": "bool"
        }
      ],
      "name": "buyWithUSDT",
      "outputs": [
        {
          "internalType": "bool",
          "name": "",
          "type": "bool"
        }
      ],
      "stateMutability": "nonpayable",
      "type": "function"
    },
    {
      "inputs": [
        {
          "internalType": "uint256",
          "name": "_priceInUSDT",
          "type": "uint256"
        }
      ],
      "name": "changeSalePrice",
      "outputs": [],
      "stateMutability": "nonpayable",
      "type": "function"
    },
    {
      "inputs": [],
      "name": "getLatestUSDTPrice",
      "outputs": [
        {
          "internalType": "uint256",
          "name": "",
          "type": "uint256"
        }
      ],
      "stateMutability": "view",
      "type": "function"
    },
    {
      "inputs": [
        {
          "internalType": "address",
          "name": "_to",
          "type": "address"
        },
        {
          "internalType": "uint256",
          "name": "_amount",
          "type": "uint256"
        },
        {
          "internalType": "uint256",
          "name": "_nonce",
          "type": "uint256"
        },
        {
          "internalType": "uint256",
          "name": "_chainId",
          "type": "uint256"
        }
      ],
      "name": "mint",
      "outputs": [],
      "stateMutability": "nonpayable",
      "type": "function"
    },
    {
      "inputs": [],
      "name": "nonce",
      "outputs": [
        {
          "internalType": "uint256",
          "name": "",
          "type": "uint256"
        }
      ],
      "stateMutability": "view",
      "type": "function"
    },
    {
      "inputs": [],
      "name": "owner",
      "outputs": [
        {
          "internalType": "address",
          "name": "",
          "type": "address"
        }
      ],
      "stateMutability": "view",
      "type": "function"
    },
    {
      "inputs": [
        {
          "internalType": "uint256",
          "name": "",
          "type": "uint256"
        },
        {
          "internalType": "uint256",
          "name": "",
          "type": "uint256"
        }
      ],
      "name": "processedNonces",
      "outputs": [
        {
          "internalType": "bool",
          "name": "",
          "type": "bool"
        }
      ],
      "stateMutability": "view",
      "type": "function"
    },
    {
      "inputs": [],
      "name": "raisedAmount",
      "outputs": [
        {
          "internalType": "uint256",
          "name": "",
          "type": "uint256"
        }
      ],
      "stateMutability": "view",
      "type": "function"
    },
    {
      "inputs": [],
      "name": "renounceOwnership",
      "outputs": [],
      "stateMutability": "nonpayable",
      "type": "function"
    },
    {
      "inputs": [],
      "name": "salePrice",
      "outputs": [
        {
          "internalType": "uint256",
          "name": "",
          "type": "uint256"
        }
      ],
      "stateMutability": "view",
      "type": "function"
    },
    {
      "inputs": [
        {
          "internalType": "uint256",
          "name": "_amount",
          "type": "uint256"
        },
        {
          "internalType": "uint256",
          "name": "_roundPrice",
          "type": "uint256"
        }
      ],
      "name": "sellTokenInETHPrice",
      "outputs": [
        {
          "internalType": "uint256",
          "name": "",
          "type": "uint256"
        }
      ],
      "stateMutability": "view",
      "type": "function"
    },
    {
      "inputs": [
        {
          "internalType": "uint256",
          "name": "_amount",
          "type": "uint256"
        },
        {
          "internalType": "uint256",
          "name": "_roundPrice",
          "type": "uint256"
        }
      ],
      "name": "sellTokenInUDSTPrice",
      "outputs": [
        {
          "internalType": "uint256",
          "name": "",
          "type": "uint256"
        }
      ],
      "stateMutability": "view",
      "type": "function"
    },
    {
      "inputs": [],
      "name": "token",
      "outputs": [
        {
          "internalType": "contract IToken",
          "name": "",
          "type": "address"
        }
      ],
      "stateMutability": "view",
      "type": "function"
    },
    {
      "inputs": [
        {
          "internalType": "address",
          "name": "newOwner",
          "type": "address"
        }
      ],
      "name": "transferOwnership",
      "outputs": [],
      "stateMutability": "nonpayable",
      "type": "function"
    },
    {
      "inputs": [
        {
          "internalType": "address",
          "name": "_newToken",
          "type": "address"
        }
      ],
      "name": "updateToken",
      "outputs": [],
      "stateMutability": "nonpayable",
      "type": "function"
    }
  ],
  "bytecode": "0x6080346100ff57601f61109838819003918201601f19168301916001600160401b03831184841017610104578084926080946040528339810103126100ff576100478161011a565b6100536020830161011a565b9161006c60606100656040840161011a565b920161011a565b926000549360018060a01b03199333858716176000556040519560018060a01b03948580948193823391167f8be0079c531659141344cd1fd0a4f28419497f9722a3daafe3b4186f6b6457e0600080a364e8d4a51000600855168760015416176001551685600254161760025516836006541617600655169060075416176007556159d8600455610f69908161012f8239f35b600080fd5b634e487b7160e01b600052604160045260246000fd5b51906001600160a01b03821682036100ff5756fe6040608081526004908136101561001557600080fd5b600091823560e01c9081634184bcce146108fb578163715018a6146108a15781637ad3def21461085c5781638da5cb5b1461083457816395a516691461069c57816398dd36bf1461067f5781639d6e1cca1461063a578163a647e8ec14610457578163affed0e014610438578163b5620896146103cc578163ba0dc0cd146103a9578163c59ee1dc1461038a578163d3838ba014610359578163d7020d0a1461022b578163f2fde38b1461015e578163f51f96dd1461013c57508063f851a440146101145763fc0c546a146100e957600080fd5b3461011057816003193601126101105760025490516001600160a01b039091168152602090f35b5080fd5b503461011057816003193601126101105760015490516001600160a01b039091168152602090f35b90503461015a578260031936011261015a5760209250549051908152f35b8280fd5b90503461015a57602036600319011261015a5761017961094e565b90610182610964565b6001600160a01b039182169283156101d9575050600054826bffffffffffffffffffffffff60a01b821617600055167f8be0079c531659141344cd1fd0a4f28419497f9722a3daafe3b4186f6b6457e0600080a380f35b906020608492519162461bcd60e51b8352820152602660248201527f4f776e61626c653a206e6577206f776e657220697320746865207a65726f206160448201526564647265737360d01b6064820152fd5b8383346101105760803660031901126101105761024661094e565b6001600160a01b036024358181168103610354576044359160025416803b15610350578451632770a7eb60e21b81526001600160a01b038516818901908152602081018590529091879183919082908490829060400103925af180156103465790869161032e575b505060035493516001600160a01b0393841681529216602083015260408201524260608201526080810182905260643560a08201527fc56ba3c1c5b3710c52c20106d58f70110a7e83dc4e51178987eb8919adc384df9060c090a1600019811461031b5760010160035580f35b506011602492634e487b7160e01b835252fd5b610337906109bc565b6103425784876102ae565b8480fd5b85513d88823e3d90fd5b8580fd5b600080fd5b5050346101105760ff8160209361036f36610938565b90825260098652828220908252855220541690519015158152f35b5050346101105781600319360112610110576020906005549051908152f35b505034610110576020906103c56103bf36610938565b90610ef5565b9051908152f35b90503461015a57602036600319011261015a578035916103ea610964565b82156103f557505580f35b906020606492519162461bcd60e51b8352820152601f60248201527f5072696365206d7573742062652067726561746572207468616e205a65726f006044820152fd5b5050346101105781600319360112610110576020906003549051908152f35b839150346101105760803660031901126101105761047361094e565b60015490916024359160643591604435916001600160a01b03908116330361060a57838752600960205287872083885260205260ff88882054166105c7578387526009602052878720838852602052878720600160ff198254161790556002541690813b156105c35787516340c10f1960e01b81526001600160a01b0387169181019182526020820186905291879183919082908490829060400103925af180156105b957610580575b5094513381526001600160a01b0390931660208401526040830191909152426060830152608082019390935260a0810192909252907f21983e74886774514c2f52363af856c8f21656819f27c8d5fc28dfcc47c4ceb9908060c081015b0390a180f35b907f21983e74886774514c2f52363af856c8f21656819f27c8d5fc28dfcc47c4ceb9956105b061057a94936109bc565b9550909161051d565b87513d88823e3d90fd5b8680fd5b875162461bcd60e51b8152602081840152601a60248201527f7472616e7366657220616c72656164792070726f6365737365640000000000006044820152606490fd5b875162461bcd60e51b8152602081840152600a60248201526937b7363c9030b236b4b760b11b6044820152606490fd5b5050346101105760603660031901126101105761065561094e565b60443592831515840361067c57506020926106739160243590610a43565b90519015158152f35b80fd5b5050346101105781600319360112610110576020906103c5610e32565b82848160031936011261067c576106b161094e565b906024359380549264e8d4a51000670de0b6b3a76400006106dd886106d860085489610ee2565b610ee2565b040493620f424085108015610827575b610817576106fb9087610ef5565b34106108085760018060a01b038380808084815416819034156107fe575b3491f1156107f4576002541691823b156107f05785516340c10f1960e01b81526001600160a01b0390921690820190815260208101879052909291829184919082908490829060400103925af19081156107e55750936107a87f0371644b355388a624a6177b002ed35bc804509fdde155c58472d42bd1ce3d089360a0936020976107d6575b50600554610a08565b60055583519033825285820152606084820152600360608201526208aa8960eb1b6080820152a15160018152f35b6107df906109bc565b8761079f565b8451903d90823e3d90fd5b8380fd5b85513d85823e3d90fd5b6108fc9150610719565b5083516322ef70c760e21b8152fd5b85516335debf6d60e01b81528390fd5b5063b2d05e0085116106ed565b505034610110578160031936011261011057905490516001600160a01b039091168152602090f35b833461067c57602036600319011261067c5761087661094e565b61087e610964565b60018060a01b03166bffffffffffffffffffffffff60a01b600254161760025580f35b833461067c578060031936011261067c576108ba610964565b80546001600160a01b03198116825581906001600160a01b03167f8be0079c531659141344cd1fd0a4f28419497f9722a3daafe3b4186f6b6457e08280a380f35b5050346101105760209064e8d4a51000670de0b6b3a764000061092f6106d861092336610938565b60089291925490610ee2565b04049051908152f35b6040906003190112610354576004359060243590565b600435906001600160a01b038216820361035457565b6000546001600160a01b0316330361097857565b606460405162461bcd60e51b815260206004820152602060248201527f4f776e61626c653a2063616c6c6572206973206e6f7420746865206f776e65726044820152fd5b67ffffffffffffffff81116109d057604052565b634e487b7160e01b600052604160045260246000fd5b90601f8019910116810190811067ffffffffffffffff8211176109d057604052565b91908201809211610a1557565b634e487b7160e01b600052601160045260246000fd5b90816020910312610354575180151581036103545790565b9160049164e8d4a51000670de0b6b3a7640000610a68836106d8875460085490610ee2565b040491620f424083108015610e0e575b610dfd5715610c675760065460408051636eb1769f60e11b81523386820190815230602082810191909152979295936001600160a01b0392908316918990829081908a010381855afa908115610c5c57600091610c2f575b508410610c1f576000805487516323b872dd60e01b8152338a82019081529185166001600160a01b0316602083015260408201879052928a928492839190829060600103925af18015610c1457610be7575b5060025416803b156103545784516340c10f1960e01b81526001600160a01b0390921686830190815260208101859052600091839182908490829060400103925af18015610bdc5792610ba66060937f0371644b355388a624a6177b002ed35bc804509fdde155c58472d42bd1ce3d0898969360a09896610bcd5750600554610a08565b6005558151943386528501528301526060820152631554d11560e21b6080820152a1600190565b610bd6906109bc565b3861079f565b84513d6000823e3d90fd5b610c0690883d8a11610c0d575b610bfe81836109e6565b810190610a2b565b5038610b22565b503d610bf4565b86513d6000823e3d90fd5b85516322ef70c760e21b81528790fd5b908982813d8311610c55575b610c4581836109e6565b8101031261067c57505138610ad0565b503d610c3b565b87513d6000823e3d90fd5b60075460408051636eb1769f60e11b81523386820190815230602082810191909152979295936001600160a01b0392908316918990829081908a010381855afa908115610c5c57600091610dd0575b508410610c1f576000805487516323b872dd60e01b8152338a82019081529185166001600160a01b0316602083015260408201879052928a928492839190829060600103925af18015610c1457610db3575b5060025416803b156103545784516340c10f1960e01b81526001600160a01b0390921686830190815260208101859052600091839182908490829060400103925af18015610bdc5792610d8c6060937f0371644b355388a624a6177b002ed35bc804509fdde155c58472d42bd1ce3d0898969360a09896610bcd5750600554610a08565b6005558151943386528501528301526060820152635553444360e01b6080820152a1600190565b610dc990883d8a11610c0d57610bfe81836109e6565b5038610d08565b908982813d8311610df6575b610de681836109e6565b8101031261067c57505138610cb6565b503d610ddc565b6040516335debf6d60e01b81528490fd5b5063b2d05e008311610a78565b519069ffffffffffffffffffff8216820361035457565b604051633fabe5a360e21b815260a08160048173ee9f2375b4bdf6387aa8265dd4fb8f16512a1d465afa908115610ed657600091610e8a575b506000811315610e785790565b604051636ef30c4560e01b8152600490fd5b9060a0823d8211610ece575b81610ea360a093836109e6565b8101031261067c5750610eb581610e1b565b50610ec7608060208301519201610e1b565b5038610e6b565b3d9150610e96565b6040513d6000823e3d90fd5b81810292918115918404141715610a1557565b610f27610f2f9164e8d4a51000610f20946008549586936106d8670de0b6b3a7640000988994610ee2565b0404610ee2565b6106d8610e32565b049056fea2646970667358221220acafbb5694403ad74c8a65f4db4fded51e8c78f71012808dfc46d1e8541af68c64736f6c63430008140033",
  "linkReferences": {},
  "deployedLinkReferences": {}
}