{
  "_format": "hh-sol-artifact-1",
  "contractName": "WrappedBridgeCDL",
  "sourceName": "contracts/WrapedCDLBridgeBasePresale.sol",
  "abi": [
    {
      "inputs": [
        {
          "internalType": "address",
          "name": "_usdt",
          "type": "address"
        },
        {
          "internalType": "address",
          "name": "_usdc",
          "type": "address"
        },
        {
          "internalType": "address",
          "name": "_token",
          "type": "address"
        }
      ],
      "stateMutability": "nonpayable",
      "type": "constructor"
    },
    {
      "inputs": [],
      "name": "invalidUSDTPrice",
      "type": "error"
    },
    {
      "inputs": [],
      "name": "minimumAndMaximumLimit",
      "type": "error"
    },
    {
      "inputs": [],
      "name": "pleaseSendTokenPrice",
      "type": "error"
    },
    {
      "anonymous": false,
      "inputs": [
        {
          "indexed": true,
          "internalType": "address",
          "name": "previousOwner",
          "type": "address"
        },
        {
          "indexed": true,
          "internalType": "address",
          "name": "newOwner",
          "type": "address"
        }
      ],
      "name": "OwnershipTransferred",
      "type": "event"
    },
    {
      "anonymous": false,
      "inputs": [
        {
          "indexed": false,
          "internalType": "address",
          "name": "from",
          "type": "address"
        },
        {
          "indexed": false,
          "internalType": "address",
          "name": "to",
          "type": "address"
        },
        {
          "indexed": false,
          "internalType": "uint256",
          "name": "amount",
          "type": "uint256"
        },
        {
          "indexed": false,
          "internalType": "uint256",
          "name": "date",
          "type": "uint256"
        },
        {
          "indexed": false,
          "internalType": "uint256",
          "name": "nonce",
          "type": "uint256"
        },
        {
          "indexed": false,
          "internalType": "uint256",
          "name": "chainId",
          "type": "uint256"
        }
      ],
      "name": "WrappedBurn",
      "type": "event"
    },
    {
      "anonymous": false,
      "inputs": [
        {
          "indexed": false,
          "internalType": "address",
          "name": "from",
          "type": "address"
        },
        {
          "indexed": false,
          "internalType": "address",
          "name": "to",
          "type": "address"
        },
        {
          "indexed": false,
          "internalType": "uint256",
          "name": "amount",
          "type": "uint256"
        },
        {
          "indexed": false,
          "internalType": "uint256",
          "name": "date",
          "type": "uint256"
        },
        {
          "indexed": false,
          "internalType": "uint256",
          "name": "nonce",
          "type": "uint256"
        },
        {
          "indexed": false,
          "internalType": "uint256",
          "name": "chainId",
          "type": "uint256"
        }
      ],
      "name": "WrappedMint",
      "type": "event"
    },
    {
      "anonymous": false,
      "inputs": [
        {
          "indexed": false,
          "internalType": "address",
          "name": "_addr",
          "type": "address"
        },
        {
          "indexed": false,
          "internalType": "uint256",
          "name": "_amount",
          "type": "uint256"
        },
        {
          "indexed": false,
          "internalType": "string",
          "name": "_paymentType",
          "type": "string"
        }
      ],
      "name": "buyHistory",
      "type": "event"
    },
    {
      "inputs": [
        {
          "internalType": "address",
          "name": "_from",
          "type": "address"
        },
        {
          "internalType": "address",
          "name": "_to",
          "type": "address"
        },
        {
          "internalType": "uint256",
          "name": "_amount",
          "type": "uint256"
        },
        {
          "internalType": "uint256",
          "name": "_chainId",
          "type": "uint256"
        }
      ],
      "name": "burn",
      "outputs": [],
      "stateMutability": "nonpayable",
      "type": "function"
    },
    {
      "inputs": [
        {
          "internalType": "address",
          "name": "_to",
          "type": "address"
        },
        {
          "internalType": "uint256",
          "name": "_amount",
          "type": "uint256"
        }
      ],
      "name": "buyWithBNB",
      "outputs": [
        {
          "internalType": "bool",
          "name": "",
          "type": "bool"
        }
      ],
      "stateMutability": "payable",
      "type": "function"
    },
    {
      "inputs": [
        {
          "internalType": "address",
          "name": "_to",
          "type": "address"
        },
        {
          "internalType": "uint256",
          "name": "_buyToken",
          "type": "uint256"
        },
        {
          "internalType": "bool",
          "name": "isUsdt",
          "type": "bool"
        }
      ],
      "name": "buyWithUSDT",
      "outputs": [
        {
          "internalType": "bool",
          "name": "",
          "type": "bool"
        }
      ],
      "stateMutability": "nonpayable",
      "type": "function"
    },
    {
      "inputs": [
        {
          "internalType": "uint256",
          "name": "_priceInUSDT",
          "type": "uint256"
        }
      ],
      "name": "changeSalePrice",
      "outputs": [],
      "stateMutability": "nonpayable",
      "type": "function"
    },
    {
      "inputs": [],
      "name": "getLatestUSDTPrice",
      "outputs": [
        {
          "internalType": "uint256",
          "name": "",
          "type": "uint256"
        }
      ],
      "stateMutability": "view",
      "type": "function"
    },
    {
      "inputs": [
        {
          "internalType": "address",
          "name": "_to",
          "type": "address"
        },
        {
          "internalType": "uint256",
          "name": "_amount",
          "type": "uint256"
        },
        {
          "internalType": "uint256",
          "name": "_nonce",
          "type": "uint256"
        },
        {
          "internalType": "uint256",
          "name": "_chainId",
          "type": "uint256"
        }
      ],
      "name": "mint",
      "outputs": [],
      "stateMutability": "nonpayable",
      "type": "function"
    },
    {
      "inputs": [],
      "name": "nonce",
      "outputs": [
        {
          "internalType": "uint256",
          "name": "",
          "type": "uint256"
        }
      ],
      "stateMutability": "view",
      "type": "function"
    },
    {
      "inputs": [],
      "name": "owner",
      "outputs": [
        {
          "internalType": "address",
          "name": "",
          "type": "address"
        }
      ],
      "stateMutability": "view",
      "type": "function"
    },
    {
      "inputs": [
        {
          "internalType": "uint256",
          "name": "",
          "type": "uint256"
        },
        {
          "internalType": "uint256",
          "name": "",
          "type": "uint256"
        }
      ],
      "name": "processedNonces",
      "outputs": [
        {
          "internalType": "bool",
          "name": "",
          "type": "bool"
        }
      ],
      "stateMutability": "view",
      "type": "function"
    },
    {
      "inputs": [],
      "name": "raisedAmount",
      "outputs": [
        {
          "internalType": "uint256",
          "name": "",
          "type": "uint256"
        }
      ],
      "stateMutability": "view",
      "type": "function"
    },
    {
      "inputs": [],
      "name": "renounceOwnership",
      "outputs": [],
      "stateMutability": "nonpayable",
      "type": "function"
    },
    {
      "inputs": [],
      "name": "salePrice",
      "outputs": [
        {
          "internalType": "uint256",
          "name": "",
          "type": "uint256"
        }
      ],
      "stateMutability": "view",
      "type": "function"
    },
    {
      "inputs": [
        {
          "internalType": "uint256",
          "name": "_amount",
          "type": "uint256"
        }
      ],
      "name": "sellTokenInETHPrice",
      "outputs": [
        {
          "internalType": "uint256",
          "name": "",
          "type": "uint256"
        }
      ],
      "stateMutability": "view",
      "type": "function"
    },
    {
      "inputs": [
        {
          "internalType": "uint256",
          "name": "_amount",
          "type": "uint256"
        }
      ],
      "name": "sellTokenInUDSTPrice",
      "outputs": [
        {
          "internalType": "uint256",
          "name": "",
          "type": "uint256"
        }
      ],
      "stateMutability": "view",
      "type": "function"
    },
    {
      "inputs": [],
      "name": "token",
      "outputs": [
        {
          "internalType": "contract IToken",
          "name": "",
          "type": "address"
        }
      ],
      "stateMutability": "view",
      "type": "function"
    },
    {
      "inputs": [
        {
          "internalType": "address",
          "name": "newOwner",
          "type": "address"
        }
      ],
      "name": "transferOwnership",
      "outputs": [],
      "stateMutability": "nonpayable",
      "type": "function"
    },
    {
      "inputs": [
        {
          "internalType": "address",
          "name": "_newToken",
          "type": "address"
        }
      ],
      "name": "updateToken",
      "outputs": [],
      "stateMutability": "nonpayable",
      "type": "function"
    }
  ],
  "bytecode": "0x60806040523480156200001157600080fd5b506040516200203538038062002035833981810160405281019062000037919062000268565b620000576200004b6200013260201b60201c565b6200013a60201b60201c565b82600560006101000a81548173ffffffffffffffffffffffffffffffffffffffff021916908373ffffffffffffffffffffffffffffffffffffffff16021790555081600660006101000a81548173ffffffffffffffffffffffffffffffffffffffff021916908373ffffffffffffffffffffffffffffffffffffffff16021790555080600160006101000a81548173ffffffffffffffffffffffffffffffffffffffff021916908373ffffffffffffffffffffffffffffffffffffffff160217905550670214e8348c4f0000600381905550505050620002c4565b600033905090565b60008060009054906101000a900473ffffffffffffffffffffffffffffffffffffffff169050816000806101000a81548173ffffffffffffffffffffffffffffffffffffffff021916908373ffffffffffffffffffffffffffffffffffffffff1602179055508173ffffffffffffffffffffffffffffffffffffffff168173ffffffffffffffffffffffffffffffffffffffff167f8be0079c531659141344cd1fd0a4f28419497f9722a3daafe3b4186f6b6457e060405160405180910390a35050565b600080fd5b600073ffffffffffffffffffffffffffffffffffffffff82169050919050565b6000620002308262000203565b9050919050565b620002428162000223565b81146200024e57600080fd5b50565b600081519050620002628162000237565b92915050565b600080600060608486031215620002845762000283620001fe565b5b6000620002948682870162000251565b9350506020620002a78682870162000251565b9250506040620002ba8682870162000251565b9150509250925092565b611d6180620002d46000396000f3fe6080604052600436106100fe5760003560e01c8063b562089611610095578063d7020d0a11610064578063d7020d0a14610335578063f2fde38b1461035e578063f4ecc6e314610387578063f51f96dd146103b7578063fc0c546a146103e2576100fe565b8063b562089614610267578063c59ee1dc14610290578063cf28a784146102bb578063d3838ba0146102f8576100fe565b806398dd36bf116100d157806398dd36bf146101ab5780639d6e1cca146101d6578063a647e8ec14610213578063affed0e01461023c576100fe565b80635827881814610103578063715018a6146101405780637ad3def2146101575780638da5cb5b14610180575b600080fd5b34801561010f57600080fd5b5061012a60048036038101906101259190611275565b61040d565b60405161013791906112b1565b60405180910390f35b34801561014c57600080fd5b5061015561043c565b005b34801561016357600080fd5b5061017e6004803603810190610179919061132a565b610450565b005b34801561018c57600080fd5b5061019561049c565b6040516101a29190611366565b60405180910390f35b3480156101b757600080fd5b506101c06104c5565b6040516101cd91906112b1565b60405180910390f35b3480156101e257600080fd5b506101fd60048036038101906101f891906113b9565b610598565b60405161020a919061141b565b60405180910390f35b34801561021f57600080fd5b5061023a60048036038101906102359190611436565b610ae9565b005b34801561024857600080fd5b50610251610c7c565b60405161025e91906112b1565b60405180910390f35b34801561027357600080fd5b5061028e60048036038101906102899190611275565b610c82565b005b34801561029c57600080fd5b506102a5610cd7565b6040516102b291906112b1565b60405180910390f35b3480156102c757600080fd5b506102e260048036038101906102dd9190611275565b610cdd565b6040516102ef91906112b1565b60405180910390f35b34801561030457600080fd5b5061031f600480360381019061031a919061149d565b610d02565b60405161032c919061141b565b60405180910390f35b34801561034157600080fd5b5061035c600480360381019061035791906114dd565b610d31565b005b34801561036a57600080fd5b506103856004803603810190610380919061132a565b610e21565b005b6103a1600480360381019061039c9190611544565b610ea4565b6040516103ae919061141b565b60405180910390f35b3480156103c357600080fd5b506103cc61108a565b6040516103d991906112b1565b60405180910390f35b3480156103ee57600080fd5b506103f7611090565b60405161040491906115e3565b60405180910390f35b600080670de0b6b3a764000083600354610427919061162d565b610431919061169e565b905080915050919050565b6104446110b6565b61044e6000611134565b565b6104586110b6565b80600160006101000a81548173ffffffffffffffffffffffffffffffffffffffff021916908373ffffffffffffffffffffffffffffffffffffffff16021790555050565b60008060009054906101000a900473ffffffffffffffffffffffffffffffffffffffff16905090565b60008073d5c40f5144848bd4ef08a9605d860e727b991513905060008173ffffffffffffffffffffffffffffffffffffffff1663feaf968c6040518163ffffffff1660e01b815260040160a060405180830381865afa15801561052c573d6000803e3d6000fd5b505050506040513d601f19601f82011682018060405250810190610550919061175c565b50505091505060008113610590576040517f6ef30c4500000000000000000000000000000000000000000000000000000000815260040160405180910390fd5b809250505090565b6000806105a48461040d565b9050670de0b6b3a76400008110806105c5575069152d02c7e14af680000081115b156105fc576040517f35debf6d00000000000000000000000000000000000000000000000000000000815260040160405180910390fd5b8215610874576000600560009054906101000a900473ffffffffffffffffffffffffffffffffffffffff1673ffffffffffffffffffffffffffffffffffffffff1663dd62ed3e33306040518363ffffffff1660e01b81526004016106619291906117d7565b602060405180830381865afa15801561067e573d6000803e3d6000fd5b505050506040513d601f19601f820116820180604052508101906106a29190611800565b9050808210156106de576040517f8bbdc31c00000000000000000000000000000000000000000000000000000000815260040160405180910390fd5b600560009054906101000a900473ffffffffffffffffffffffffffffffffffffffff1673ffffffffffffffffffffffffffffffffffffffff166323b872dd3361072561049c565b856040518463ffffffff1660e01b81526004016107449392919061182d565b6020604051808303816000875af1158015610763573d6000803e3d6000fd5b505050506040513d601f19601f820116820180604052508101906107879190611879565b50600160009054906101000a900473ffffffffffffffffffffffffffffffffffffffff1673ffffffffffffffffffffffffffffffffffffffff166340c10f1987876040518363ffffffff1660e01b81526004016107e59291906118a6565b600060405180830381600087803b1580156107ff57600080fd5b505af1158015610813573d6000803e3d6000fd5b50505050816004600082825461082991906118cf565b925050819055507f0371644b355388a624a6177b002ed35bc804509fdde155c58472d42bd1ce3d083386604051610861929190611960565b60405180910390a1600192505050610ae2565b6000600660009054906101000a900473ffffffffffffffffffffffffffffffffffffffff1673ffffffffffffffffffffffffffffffffffffffff1663dd62ed3e33306040518363ffffffff1660e01b81526004016108d39291906117d7565b602060405180830381865afa1580156108f0573d6000803e3d6000fd5b505050506040513d601f19601f820116820180604052508101906109149190611800565b905080821015610950576040517f8bbdc31c00000000000000000000000000000000000000000000000000000000815260040160405180910390fd5b600660009054906101000a900473ffffffffffffffffffffffffffffffffffffffff1673ffffffffffffffffffffffffffffffffffffffff166323b872dd3361099761049c565b856040518463ffffffff1660e01b81526004016109b69392919061182d565b6020604051808303816000875af11580156109d5573d6000803e3d6000fd5b505050506040513d601f19601f820116820180604052508101906109f99190611879565b50600160009054906101000a900473ffffffffffffffffffffffffffffffffffffffff1673ffffffffffffffffffffffffffffffffffffffff166340c10f1987876040518363ffffffff1660e01b8152600401610a579291906118a6565b600060405180830381600087803b158015610a7157600080fd5b505af1158015610a85573d6000803e3d6000fd5b505050508160046000828254610a9b91906118cf565b925050819055507f0371644b355388a624a6177b002ed35bc804509fdde155c58472d42bd1ce3d083386604051610ad39291906119e8565b60405180910390a16001925050505b9392505050565b610af16110b6565b6000151560076000838152602001908152602001600020600084815260200190815260200160002060009054906101000a900460ff16151514610b69576040517f08c379a0000000000000000000000000000000000000000000000000000000008152600401610b6090611a70565b60405180910390fd5b600160076000838152602001908152602001600020600084815260200190815260200160002060006101000a81548160ff021916908315150217905550600160009054906101000a900473ffffffffffffffffffffffffffffffffffffffff1673ffffffffffffffffffffffffffffffffffffffff166340c10f1985856040518363ffffffff1660e01b8152600401610c039291906118a6565b600060405180830381600087803b158015610c1d57600080fd5b505af1158015610c31573d6000803e3d6000fd5b505050507f21983e74886774514c2f52363af856c8f21656819f27c8d5fc28dfcc47c4ceb9338585428686604051610c6e96959493929190611a90565b60405180910390a150505050565b60025481565b610c8a6110b6565b60008111610ccd576040517f08c379a0000000000000000000000000000000000000000000000000000000008152600401610cc490611b3d565b60405180910390fd5b8060038190555050565b60045481565b600080610ce98361040d565b90506000610cf6826111f8565b90508092505050919050565b60076020528160005260406000206020528060005260406000206000915091509054906101000a900460ff1681565b600160009054906101000a900473ffffffffffffffffffffffffffffffffffffffff1673ffffffffffffffffffffffffffffffffffffffff16639dc29fac85846040518363ffffffff1660e01b8152600401610d8e9291906118a6565b600060405180830381600087803b158015610da857600080fd5b505af1158015610dbc573d6000803e3d6000fd5b505050507fc56ba3c1c5b3710c52c20106d58f70110a7e83dc4e51178987eb8919adc384df8484844260025486604051610dfb96959493929190611a90565b60405180910390a160026000815480929190610e1690611b5d565b919050555050505050565b610e296110b6565b600073ffffffffffffffffffffffffffffffffffffffff168173ffffffffffffffffffffffffffffffffffffffff1603610e98576040517f08c379a0000000000000000000000000000000000000000000000000000000008152600401610e8f90611c17565b60405180910390fd5b610ea181611134565b50565b600080610eb08361040d565b9050670de0b6b3a7640000811080610ed1575069152d02c7e14af680000081115b15610f08576040517f35debf6d00000000000000000000000000000000000000000000000000000000815260040160405180910390fd5b6000610f1384610cdd565b905080341015610f4f576040517f8bbdc31c00000000000000000000000000000000000000000000000000000000815260040160405180910390fd5b610f5761049c565b73ffffffffffffffffffffffffffffffffffffffff166108fc349081150290604051600060405180830381858888f19350505050158015610f9c573d6000803e3d6000fd5b50600160009054906101000a900473ffffffffffffffffffffffffffffffffffffffff1673ffffffffffffffffffffffffffffffffffffffff166340c10f1986866040518363ffffffff1660e01b8152600401610ffa9291906118a6565b600060405180830381600087803b15801561101457600080fd5b505af1158015611028573d6000803e3d6000fd5b50505050816004600082825461103e91906118cf565b925050819055507f0371644b355388a624a6177b002ed35bc804509fdde155c58472d42bd1ce3d083385604051611076929190611c83565b60405180910390a160019250505092915050565b60035481565b600160009054906101000a900473ffffffffffffffffffffffffffffffffffffffff1681565b6110be611232565b73ffffffffffffffffffffffffffffffffffffffff166110dc61049c565b73ffffffffffffffffffffffffffffffffffffffff1614611132576040517f08c379a000000000000000000000000000000000000000000000000000000000815260040161112990611d0b565b60405180910390fd5b565b60008060009054906101000a900473ffffffffffffffffffffffffffffffffffffffff169050816000806101000a81548173ffffffffffffffffffffffffffffffffffffffff021916908373ffffffffffffffffffffffffffffffffffffffff1602179055508173ffffffffffffffffffffffffffffffffffffffff168173ffffffffffffffffffffffffffffffffffffffff167f8be0079c531659141344cd1fd0a4f28419497f9722a3daafe3b4186f6b6457e060405160405180910390a35050565b600080670de0b6b3a76400008361120f919061169e565b905060008161121c6104c5565b611226919061162d565b90508092505050919050565b600033905090565b600080fd5b6000819050919050565b6112528161123f565b811461125d57600080fd5b50565b60008135905061126f81611249565b92915050565b60006020828403121561128b5761128a61123a565b5b600061129984828501611260565b91505092915050565b6112ab8161123f565b82525050565b60006020820190506112c660008301846112a2565b92915050565b600073ffffffffffffffffffffffffffffffffffffffff82169050919050565b60006112f7826112cc565b9050919050565b611307816112ec565b811461131257600080fd5b50565b600081359050611324816112fe565b92915050565b6000602082840312156113405761133f61123a565b5b600061134e84828501611315565b91505092915050565b611360816112ec565b82525050565b600060208201905061137b6000830184611357565b92915050565b60008115159050919050565b61139681611381565b81146113a157600080fd5b50565b6000813590506113b38161138d565b92915050565b6000806000606084860312156113d2576113d161123a565b5b60006113e086828701611315565b93505060206113f186828701611260565b9250506040611402868287016113a4565b9150509250925092565b61141581611381565b82525050565b6000602082019050611430600083018461140c565b92915050565b600080600080608085870312156114505761144f61123a565b5b600061145e87828801611315565b945050602061146f87828801611260565b935050604061148087828801611260565b925050606061149187828801611260565b91505092959194509250565b600080604083850312156114b4576114b361123a565b5b60006114c285828601611260565b92505060206114d385828601611260565b9150509250929050565b600080600080608085870312156114f7576114f661123a565b5b600061150587828801611315565b945050602061151687828801611315565b935050604061152787828801611260565b925050606061153887828801611260565b91505092959194509250565b6000806040838503121561155b5761155a61123a565b5b600061156985828601611315565b925050602061157a85828601611260565b9150509250929050565b6000819050919050565b60006115a96115a461159f846112cc565b611584565b6112cc565b9050919050565b60006115bb8261158e565b9050919050565b60006115cd826115b0565b9050919050565b6115dd816115c2565b82525050565b60006020820190506115f860008301846115d4565b92915050565b7f4e487b7100000000000000000000000000000000000000000000000000000000600052601160045260246000fd5b60006116388261123f565b91506116438361123f565b92508282026116518161123f565b91508282048414831517611668576116676115fe565b5b5092915050565b7f4e487b7100000000000000000000000000000000000000000000000000000000600052601260045260246000fd5b60006116a98261123f565b91506116b48361123f565b9250826116c4576116c361166f565b5b828204905092915050565b600069ffffffffffffffffffff82169050919050565b6116ee816116cf565b81146116f957600080fd5b50565b60008151905061170b816116e5565b92915050565b6000819050919050565b61172481611711565b811461172f57600080fd5b50565b6000815190506117418161171b565b92915050565b60008151905061175681611249565b92915050565b600080600080600060a086880312156117785761177761123a565b5b6000611786888289016116fc565b955050602061179788828901611732565b94505060406117a888828901611747565b93505060606117b988828901611747565b92505060806117ca888289016116fc565b9150509295509295909350565b60006040820190506117ec6000830185611357565b6117f96020830184611357565b9392505050565b6000602082840312156118165761181561123a565b5b600061182484828501611747565b91505092915050565b60006060820190506118426000830186611357565b61184f6020830185611357565b61185c60408301846112a2565b949350505050565b6000815190506118738161138d565b92915050565b60006020828403121561188f5761188e61123a565b5b600061189d84828501611864565b91505092915050565b60006040820190506118bb6000830185611357565b6118c860208301846112a2565b9392505050565b60006118da8261123f565b91506118e58361123f565b92508282019050808211156118fd576118fc6115fe565b5b92915050565b600082825260208201905092915050565b7f5553445400000000000000000000000000000000000000000000000000000000600082015250565b600061194a600483611903565b915061195582611914565b602082019050919050565b60006060820190506119756000830185611357565b61198260208301846112a2565b81810360408301526119938161193d565b90509392505050565b7f5553444300000000000000000000000000000000000000000000000000000000600082015250565b60006119d2600483611903565b91506119dd8261199c565b602082019050919050565b60006060820190506119fd6000830185611357565b611a0a60208301846112a2565b8181036040830152611a1b816119c5565b90509392505050565b7f7472616e7366657220616c72656164792070726f636573736564000000000000600082015250565b6000611a5a601a83611903565b9150611a6582611a24565b602082019050919050565b60006020820190508181036000830152611a8981611a4d565b9050919050565b600060c082019050611aa56000830189611357565b611ab26020830188611357565b611abf60408301876112a2565b611acc60608301866112a2565b611ad960808301856112a2565b611ae660a08301846112a2565b979650505050505050565b7f5072696365206d7573742062652067726561746572207468616e205a65726f00600082015250565b6000611b27601f83611903565b9150611b3282611af1565b602082019050919050565b60006020820190508181036000830152611b5681611b1a565b9050919050565b6000611b688261123f565b91507fffffffffffffffffffffffffffffffffffffffffffffffffffffffffffffffff8203611b9a57611b996115fe565b5b600182019050919050565b7f4f776e61626c653a206e6577206f776e657220697320746865207a65726f206160008201527f6464726573730000000000000000000000000000000000000000000000000000602082015250565b6000611c01602683611903565b9150611c0c82611ba5565b604082019050919050565b60006020820190508181036000830152611c3081611bf4565b9050919050565b7f424e420000000000000000000000000000000000000000000000000000000000600082015250565b6000611c6d600383611903565b9150611c7882611c37565b602082019050919050565b6000606082019050611c986000830185611357565b611ca560208301846112a2565b8181036040830152611cb681611c60565b90509392505050565b7f4f776e61626c653a2063616c6c6572206973206e6f7420746865206f776e6572600082015250565b6000611cf5602083611903565b9150611d0082611cbf565b602082019050919050565b60006020820190508181036000830152611d2481611ce8565b905091905056fea2646970667358221220ec0840ea16574ba63d50dc33da4147a2128d47507e3e365e77f9ddcfd2c9c47b64736f6c63430008140033",
  "linkReferences": {},
  "deployedLinkReferences": {}
}